{
    "contractName": "MockOracle",
    "abi": [
        {
            "inputs": [],
            "stateMutability": "nonpayable",
            "type": "constructor"
        },
        {
            "inputs": [],
            "name": "getLatestPrice",
            "outputs": [
                {
                    "internalType": "int256",
                    "name": "",
                    "type": "int256"
                }
            ],
            "stateMutability": "view",
            "type": "function"
        },
        {
            "inputs": [
                {
                    "internalType": "int256",
                    "name": "_price",
                    "type": "int256"
                }
            ],
            "name": "setPrice",
            "outputs": [],
            "stateMutability": "nonpayable",
            "type": "function"
        }
    ],
    "bytecode": "608060405234801561000f575f80fd5b50645e7c07334c6001555f80546001600160a01b03191673694aa1769357215de4fac081bf1f309adc32530617905560a78061004a5f395ff3fe6080604052348015600e575f80fd5b50600436106030575f3560e01c80638e15f473146034578063f7a30806146049575b5f80fd5b60015460405190815260200160405180910390f35b60596054366004605b565b600155565b005b5f60208284031215606a575f80fd5b503591905056fea264697066735822122007ccf21ef640dc6baa5a6b201e34df59f74f1ea3b893d30ad03bcc04e22c6a3f64736f6c63430008140033",
    "sourcePath": "/Users/sophielamo/solsticeLend/backend/contracts/lending/MockOracle.sol",
    "compiler": {
        "name": "solc",
        "version": "0.8.20+commit.a1b79de6"
    },
    "functionHashes": {
        "getLatestPrice()": "8e15f473",
        "setPrice(int256)": "f7a30806"
    },
    "gasEstimates": {
        "creation": {
            "codeDepositCost": "33400",
            "executionCost": "46426",
            "totalCost": "79826"
        },
        "external": {
            "getLatestPrice()": "2245",
            "setPrice(int256)": "22310"
        }
    }
}