{
    "contractName": "Oracle",
    "abi": [
        {
            "inputs": [],
            "stateMutability": "nonpayable",
            "type": "constructor"
        },
        {
            "inputs": [],
            "name": "getLatestPrice",
            "outputs": [
                {
                    "internalType": "int256",
                    "name": "",
                    "type": "int256"
                }
            ],
            "stateMutability": "view",
            "type": "function"
        }
    ],
    "bytecode": "608060405234801561000f575f80fd5b505f80546001600160a01b03191673694aa1769357215de4fac081bf1f309adc32530617905561015d806100425f395ff3fe608060405234801561000f575f80fd5b5060043610610029575f3560e01c80638e15f4731461002d575b5f80fd5b610035610047565b60405190815260200160405180910390f35b5f805460408051633fabe5a360e21b8152905183926001600160a01b03169163feaf968c9160048083019260a09291908290030181865afa15801561008e573d5f803e3d5ffd5b505050506040513d601f19601f820116820180604052508101906100b291906100db565b509195945050505050565b805169ffffffffffffffffffff811681146100d6575f80fd5b919050565b5f805f805f60a086880312156100ef575f80fd5b6100f8866100bd565b945060208601519350604086015192506060860151915061011b608087016100bd565b9050929550929590935056fea264697066735822122026abe42814650e412bf15a2c4ba4efb89e58769f824aa7b1760a37d19b64671c64736f6c63430008140033",
    "sourcePath": "/Users/sophielamo/defi-frontend/backend/contracts/lending/Oracle.sol",
    "compiler": {
        "name": "solc",
        "version": "0.8.20+commit.a1b79de6"
    },
    "functionHashes": {
        "getLatestPrice()": "8e15f473"
    },
    "gasEstimates": {
        "creation": {
            "codeDepositCost": "69800",
            "executionCost": "24350",
            "totalCost": "94150"
        },
        "external": {
            "getLatestPrice()": "infinite"
        }
    }
}