{
    "contractName": "SolsticeCoin",
    "abi": [
        {
            "anonymous": false,
            "inputs": [
                {
                    "indexed": true,
                    "internalType": "address",
                    "name": "owner",
                    "type": "address"
                },
                {
                    "indexed": true,
                    "internalType": "address",
                    "name": "spender",
                    "type": "address"
                },
                {
                    "indexed": false,
                    "internalType": "uint256",
                    "name": "value",
                    "type": "uint256"
                }
            ],
            "name": "Approval",
            "type": "event"
        },
        {
            "anonymous": false,
            "inputs": [
                {
                    "indexed": true,
                    "internalType": "address",
                    "name": "from",
                    "type": "address"
                },
                {
                    "indexed": true,
                    "internalType": "address",
                    "name": "to",
                    "type": "address"
                },
                {
                    "indexed": false,
                    "internalType": "uint256",
                    "name": "value",
                    "type": "uint256"
                }
            ],
            "name": "Transfer",
            "type": "event"
        },
        {
            "inputs": [
                {
                    "internalType": "address",
                    "name": "",
                    "type": "address"
                },
                {
                    "internalType": "address",
                    "name": "",
                    "type": "address"
                }
            ],
            "name": "allowance",
            "outputs": [
                {
                    "internalType": "uint256",
                    "name": "",
                    "type": "uint256"
                }
            ],
            "stateMutability": "view",
            "type": "function"
        },
        {
            "inputs": [
                {
                    "internalType": "address",
                    "name": "spender",
                    "type": "address"
                },
                {
                    "internalType": "uint256",
                    "name": "amount",
                    "type": "uint256"
                }
            ],
            "name": "approve",
            "outputs": [
                {
                    "internalType": "bool",
                    "name": "",
                    "type": "bool"
                }
            ],
            "stateMutability": "nonpayable",
            "type": "function"
        },
        {
            "inputs": [
                {
                    "internalType": "uint256",
                    "name": "amount",
                    "type": "uint256"
                }
            ],
            "name": "burn",
            "outputs": [],
            "stateMutability": "nonpayable",
            "type": "function"
        },
        {
            "inputs": [
                {
                    "internalType": "address",
                    "name": "",
                    "type": "address"
                }
            ],
            "name": "debtAmount",
            "outputs": [
                {
                    "internalType": "uint256",
                    "name": "",
                    "type": "uint256"
                }
            ],
            "stateMutability": "view",
            "type": "function"
        },
        {
            "inputs": [],
            "name": "decimals",
            "outputs": [
                {
                    "internalType": "uint8",
                    "name": "",
                    "type": "uint8"
                }
            ],
            "stateMutability": "view",
            "type": "function"
        },
        {
            "inputs": [
                {
                    "internalType": "uint256",
                    "name": "amount",
                    "type": "uint256"
                }
            ],
            "name": "mint",
            "outputs": [],
            "stateMutability": "nonpayable",
            "type": "function"
        },
        {
            "inputs": [],
            "name": "name",
            "outputs": [
                {
                    "internalType": "string",
                    "name": "",
                    "type": "string"
                }
            ],
            "stateMutability": "view",
            "type": "function"
        },
        {
            "inputs": [],
            "name": "symbol",
            "outputs": [
                {
                    "internalType": "string",
                    "name": "",
                    "type": "string"
                }
            ],
            "stateMutability": "view",
            "type": "function"
        },
        {
            "inputs": [],
            "name": "totalSupply",
            "outputs": [
                {
                    "internalType": "uint256",
                    "name": "",
                    "type": "uint256"
                }
            ],
            "stateMutability": "view",
            "type": "function"
        },
        {
            "inputs": [
                {
                    "internalType": "address",
                    "name": "recipient",
                    "type": "address"
                },
                {
                    "internalType": "uint256",
                    "name": "amount",
                    "type": "uint256"
                }
            ],
            "name": "transfer",
            "outputs": [
                {
                    "internalType": "bool",
                    "name": "",
                    "type": "bool"
                }
            ],
            "stateMutability": "nonpayable",
            "type": "function"
        },
        {
            "inputs": [
                {
                    "internalType": "address",
                    "name": "sender",
                    "type": "address"
                },
                {
                    "internalType": "address",
                    "name": "recipient",
                    "type": "address"
                },
                {
                    "internalType": "uint256",
                    "name": "amount",
                    "type": "uint256"
                }
            ],
            "name": "transferFrom",
            "outputs": [
                {
                    "internalType": "bool",
                    "name": "",
                    "type": "bool"
                }
            ],
            "stateMutability": "nonpayable",
            "type": "function"
        }
    ],
    "bytecode": "60c0604052600c60809081526b29b7b639ba34b1b2a1b7b4b760a11b60a05260039061002b908261010b565b50604080518082019091526002815261534360f01b6020820152600490610052908261010b565b506005805460ff1916601217905534801561006b575f80fd5b506101c6565b634e487b7160e01b5f52604160045260245ffd5b600181811c9082168061009957607f821691505b6020821081036100b757634e487b7160e01b5f52602260045260245ffd5b50919050565b601f821115610106575f81815260208120601f850160051c810160208610156100e35750805b601f850160051c820191505b81811015610102578281556001016100ef565b5050505b505050565b81516001600160401b0381111561012457610124610071565b610138816101328454610085565b846100bd565b602080601f83116001811461016b575f84156101545750858301515b5f19600386901b1c1916600185901b178555610102565b5f85815260208120601f198616915b828110156101995788860151825594840194600190910190840161017a565b50858210156101b657878501515f19600388901b60f8161c191681555b5050505050600190811b01905550565b6106ca806101d35f395ff3fe608060405234801561000f575f80fd5b50600436106100a6575f3560e01c806342966c681161006e57806342966c681461013357806354a9f42c1461014857806395d89b4114610167578063a0712d681461016f578063a9059cbb14610182578063dd62ed3e14610195575f80fd5b806306fdde03146100aa578063095ea7b3146100c857806318160ddd146100eb57806323b872dd14610101578063313ce56714610114575b5f80fd5b6100b26101bf565b6040516100bf91906104d3565b60405180910390f35b6100db6100d6366004610539565b61024b565b60405190151581526020016100bf565b6100f35f5481565b6040519081526020016100bf565b6100db61010f366004610561565b6102b7565b6005546101219060ff1681565b60405160ff90911681526020016100bf565b61014661014136600461059a565b61038e565b005b6100f36101563660046105b1565b60016020525f908152604090205481565b6100b26103f0565b61014661017d36600461059a565b6103fd565b6100db610190366004610539565b610458565b6100f36101a33660046105d1565b600260209081525f928352604080842090915290825290205481565b600380546101cc90610602565b80601f01602080910402602001604051908101604052809291908181526020018280546101f890610602565b80156102435780601f1061021a57610100808354040283529160200191610243565b820191905f5260205f20905b81548152906001019060200180831161022657829003601f168201915b505050505081565b335f8181526002602090815260408083206001600160a01b038716808552925280832085905551919290917f8c5be1e5ebec7d5bd14f71427d1e84f3dd0314c0f7b2291e5b200ac8c7c3b925906102a59086815260200190565b60405180910390a35060015b92915050565b6001600160a01b0383165f9081526002602090815260408083203384529091528120805483919083906102eb90849061064e565b90915550506001600160a01b0384165f908152600160205260408120805484929061031790849061064e565b90915550506001600160a01b0383165f9081526001602052604081208054849290610343908490610661565b92505081905550826001600160a01b0316846001600160a01b03165f805160206106758339815191528460405161037c91815260200190565b60405180910390a35060019392505050565b335f90815260016020526040812080548392906103ac90849061064e565b92505081905550805f808282546103c3919061064e565b90915550506040518181525f9033905f80516020610675833981519152906020015b60405180910390a350565b600480546101cc90610602565b335f908152600160205260408120805483929061041b908490610661565b92505081905550805f808282546104329190610661565b909155505060405181815233905f905f80516020610675833981519152906020016103e5565b335f9081526001602052604081208054839190839061047890849061064e565b90915550506001600160a01b0383165f90815260016020526040812080548492906104a4908490610661565b90915550506040518281526001600160a01b0384169033905f80516020610675833981519152906020016102a5565b5f6020808352835180828501525f5b818110156104fe578581018301518582016040015282016104e2565b505f604082860101526040601f19601f8301168501019250505092915050565b80356001600160a01b0381168114610534575f80fd5b919050565b5f806040838503121561054a575f80fd5b6105538361051e565b946020939093013593505050565b5f805f60608486031215610573575f80fd5b61057c8461051e565b925061058a6020850161051e565b9150604084013590509250925092565b5f602082840312156105aa575f80fd5b5035919050565b5f602082840312156105c1575f80fd5b6105ca8261051e565b9392505050565b5f80604083850312156105e2575f80fd5b6105eb8361051e565b91506105f96020840161051e565b90509250929050565b600181811c9082168061061657607f821691505b60208210810361063457634e487b7160e01b5f52602260045260245ffd5b50919050565b634e487b7160e01b5f52601160045260245ffd5b818103818111156102b1576102b161063a565b808201808211156102b1576102b161063a56feddf252ad1be2c89b69c2b068fc378daa952ba7f163c4a11628f55a4df523b3efa2646970667358221220275a7d4fcd367cfeda57e3f701e860c36304179932e7702e01a0511e1e7503e364736f6c63430008140033",
    "sourcePath": "/Users/sophielamo/defi-frontend/backend/contracts/lending/SolsticeCoin.sol",
    "compiler": {
        "name": "solc",
        "version": "0.8.20+commit.a1b79de6"
    },
    "functionHashes": {
        "allowance(address,address)": "dd62ed3e",
        "approve(address,uint256)": "095ea7b3",
        "burn(uint256)": "42966c68",
        "debtAmount(address)": "54a9f42c",
        "decimals()": "313ce567",
        "mint(uint256)": "a0712d68",
        "name()": "06fdde03",
        "symbol()": "95d89b41",
        "totalSupply()": "18160ddd",
        "transfer(address,uint256)": "a9059cbb",
        "transferFrom(address,address,uint256)": "23b872dd"
    },
    "gasEstimates": {
        "creation": {
            "codeDepositCost": "347600",
            "executionCost": "infinite",
            "totalCost": "infinite"
        },
        "external": {
            "allowance(address,address)": "infinite",
            "approve(address,uint256)": "24520",
            "burn(uint256)": "infinite",
            "debtAmount(address)": "2538",
            "decimals()": "2401",
            "mint(uint256)": "infinite",
            "name()": "infinite",
            "symbol()": "infinite",
            "totalSupply()": "2338",
            "transfer(address,uint256)": "infinite",
            "transferFrom(address,address,uint256)": "infinite"
        }
    }
}