{
    "contractName": "SolsticeCoin",
    "abi": [
        {
            "inputs": [],
            "stateMutability": "nonpayable",
            "type": "constructor"
        },
        {
            "inputs": [],
            "name": "InvalidShortString",
            "type": "error"
        },
        {
            "inputs": [
                {
                    "internalType": "string",
                    "name": "str",
                    "type": "string"
                }
            ],
            "name": "StringTooLong",
            "type": "error"
        },
        {
            "anonymous": false,
            "inputs": [
                {
                    "indexed": true,
                    "internalType": "address",
                    "name": "owner",
                    "type": "address"
                },
                {
                    "indexed": true,
                    "internalType": "address",
                    "name": "spender",
                    "type": "address"
                },
                {
                    "indexed": false,
                    "internalType": "uint256",
                    "name": "value",
                    "type": "uint256"
                }
            ],
            "name": "Approval",
            "type": "event"
        },
        {
            "anonymous": false,
            "inputs": [],
            "name": "EIP712DomainChanged",
            "type": "event"
        },
        {
            "anonymous": false,
            "inputs": [
                {
                    "indexed": true,
                    "internalType": "address",
                    "name": "from",
                    "type": "address"
                },
                {
                    "indexed": true,
                    "internalType": "address",
                    "name": "to",
                    "type": "address"
                },
                {
                    "indexed": false,
                    "internalType": "uint256",
                    "name": "value",
                    "type": "uint256"
                }
            ],
            "name": "Transfer",
            "type": "event"
        },
        {
            "inputs": [],
            "name": "DOMAIN_SEPARATOR",
            "outputs": [
                {
                    "internalType": "bytes32",
                    "name": "",
                    "type": "bytes32"
                }
            ],
            "stateMutability": "view",
            "type": "function"
        },
        {
            "inputs": [
                {
                    "internalType": "address",
                    "name": "owner",
                    "type": "address"
                },
                {
                    "internalType": "address",
                    "name": "spender",
                    "type": "address"
                }
            ],
            "name": "allowance",
            "outputs": [
                {
                    "internalType": "uint256",
                    "name": "",
                    "type": "uint256"
                }
            ],
            "stateMutability": "view",
            "type": "function"
        },
        {
            "inputs": [
                {
                    "internalType": "address",
                    "name": "spender",
                    "type": "address"
                },
                {
                    "internalType": "uint256",
                    "name": "amount",
                    "type": "uint256"
                }
            ],
            "name": "approve",
            "outputs": [
                {
                    "internalType": "bool",
                    "name": "",
                    "type": "bool"
                }
            ],
            "stateMutability": "nonpayable",
            "type": "function"
        },
        {
            "inputs": [
                {
                    "internalType": "address",
                    "name": "account",
                    "type": "address"
                }
            ],
            "name": "balanceOf",
            "outputs": [
                {
                    "internalType": "uint256",
                    "name": "",
                    "type": "uint256"
                }
            ],
            "stateMutability": "view",
            "type": "function"
        },
        {
            "inputs": [
                {
                    "internalType": "address",
                    "name": "account",
                    "type": "address"
                },
                {
                    "internalType": "uint256",
                    "name": "value",
                    "type": "uint256"
                }
            ],
            "name": "burnFrom",
            "outputs": [],
            "stateMutability": "nonpayable",
            "type": "function"
        },
        {
            "inputs": [],
            "name": "decimals",
            "outputs": [
                {
                    "internalType": "uint8",
                    "name": "",
                    "type": "uint8"
                }
            ],
            "stateMutability": "view",
            "type": "function"
        },
        {
            "inputs": [
                {
                    "internalType": "address",
                    "name": "spender",
                    "type": "address"
                },
                {
                    "internalType": "uint256",
                    "name": "subtractedValue",
                    "type": "uint256"
                }
            ],
            "name": "decreaseAllowance",
            "outputs": [
                {
                    "internalType": "bool",
                    "name": "",
                    "type": "bool"
                }
            ],
            "stateMutability": "nonpayable",
            "type": "function"
        },
        {
            "inputs": [],
            "name": "eip712Domain",
            "outputs": [
                {
                    "internalType": "bytes1",
                    "name": "fields",
                    "type": "bytes1"
                },
                {
                    "internalType": "string",
                    "name": "name",
                    "type": "string"
                },
                {
                    "internalType": "string",
                    "name": "version",
                    "type": "string"
                },
                {
                    "internalType": "uint256",
                    "name": "chainId",
                    "type": "uint256"
                },
                {
                    "internalType": "address",
                    "name": "verifyingContract",
                    "type": "address"
                },
                {
                    "internalType": "bytes32",
                    "name": "salt",
                    "type": "bytes32"
                },
                {
                    "internalType": "uint256[]",
                    "name": "extensions",
                    "type": "uint256[]"
                }
            ],
            "stateMutability": "view",
            "type": "function"
        },
        {
            "inputs": [
                {
                    "internalType": "address",
                    "name": "spender",
                    "type": "address"
                },
                {
                    "internalType": "uint256",
                    "name": "addedValue",
                    "type": "uint256"
                }
            ],
            "name": "increaseAllowance",
            "outputs": [
                {
                    "internalType": "bool",
                    "name": "",
                    "type": "bool"
                }
            ],
            "stateMutability": "nonpayable",
            "type": "function"
        },
        {
            "inputs": [
                {
                    "internalType": "address",
                    "name": "to",
                    "type": "address"
                },
                {
                    "internalType": "uint256",
                    "name": "amount",
                    "type": "uint256"
                }
            ],
            "name": "mint",
            "outputs": [],
            "stateMutability": "nonpayable",
            "type": "function"
        },
        {
            "inputs": [],
            "name": "name",
            "outputs": [
                {
                    "internalType": "string",
                    "name": "",
                    "type": "string"
                }
            ],
            "stateMutability": "view",
            "type": "function"
        },
        {
            "inputs": [
                {
                    "internalType": "address",
                    "name": "owner",
                    "type": "address"
                }
            ],
            "name": "nonces",
            "outputs": [
                {
                    "internalType": "uint256",
                    "name": "",
                    "type": "uint256"
                }
            ],
            "stateMutability": "view",
            "type": "function"
        },
        {
            "inputs": [
                {
                    "internalType": "address",
                    "name": "owner",
                    "type": "address"
                },
                {
                    "internalType": "address",
                    "name": "spender",
                    "type": "address"
                },
                {
                    "internalType": "uint256",
                    "name": "value",
                    "type": "uint256"
                },
                {
                    "internalType": "uint256",
                    "name": "deadline",
                    "type": "uint256"
                },
                {
                    "internalType": "uint8",
                    "name": "v",
                    "type": "uint8"
                },
                {
                    "internalType": "bytes32",
                    "name": "r",
                    "type": "bytes32"
                },
                {
                    "internalType": "bytes32",
                    "name": "s",
                    "type": "bytes32"
                }
            ],
            "name": "permit",
            "outputs": [],
            "stateMutability": "nonpayable",
            "type": "function"
        },
        {
            "inputs": [],
            "name": "symbol",
            "outputs": [
                {
                    "internalType": "string",
                    "name": "",
                    "type": "string"
                }
            ],
            "stateMutability": "view",
            "type": "function"
        },
        {
            "inputs": [],
            "name": "totalSupply",
            "outputs": [
                {
                    "internalType": "uint256",
                    "name": "",
                    "type": "uint256"
                }
            ],
            "stateMutability": "view",
            "type": "function"
        },
        {
            "inputs": [
                {
                    "internalType": "address",
                    "name": "to",
                    "type": "address"
                },
                {
                    "internalType": "uint256",
                    "name": "amount",
                    "type": "uint256"
                }
            ],
            "name": "transfer",
            "outputs": [
                {
                    "internalType": "bool",
                    "name": "",
                    "type": "bool"
                }
            ],
            "stateMutability": "nonpayable",
            "type": "function"
        },
        {
            "inputs": [
                {
                    "internalType": "address",
                    "name": "from",
                    "type": "address"
                },
                {
                    "internalType": "address",
                    "name": "to",
                    "type": "address"
                },
                {
                    "internalType": "uint256",
                    "name": "amount",
                    "type": "uint256"
                }
            ],
            "name": "transferFrom",
            "outputs": [
                {
                    "internalType": "bool",
                    "name": "",
                    "type": "bool"
                }
            ],
            "stateMutability": "nonpayable",
            "type": "function"
        }
    ],
    "bytecode": "61016060405234801562000011575f80fd5b506040518060400160405280600c81526020016b29b7b639ba34b1b2a1b7b4b760a11b81525080604051806040016040528060018152602001603160f81b8152506040518060400160405280600c81526020016b29b7b639ba34b1b2a1b7b4b760a11b81525060405180604001604052806002815260200161534360f01b8152508160039081620000a3919062000295565b506004620000b2828262000295565b50620000c49150839050600562000172565b61012052620000d581600662000172565b61014052815160208084019190912060e052815190820120610100524660a0526200016260e05161010051604080517f8b73c3c69bb8fe3d512ecc4cf759cc79239f7b179b0ffacaa9a75d522b39400f60208201529081019290925260608201524660808201523060a08201525f9060c00160405160208183030381529060405280519060200120905090565b60805250503060c05250620003ce565b5f60208351101562000191576200018983620001aa565b9050620001a4565b816200019e848262000295565b5060ff90505b92915050565b5f80829050601f81511115620001e0578260405163305a27a960e01b8152600401620001d791906200035d565b60405180910390fd5b8051620001ed82620003aa565b179392505050565b634e487b7160e01b5f52604160045260245ffd5b600181811c908216806200021e57607f821691505b6020821081036200023d57634e487b7160e01b5f52602260045260245ffd5b50919050565b601f82111562000290575f81815260208120601f850160051c810160208610156200026b5750805b601f850160051c820191505b818110156200028c5782815560010162000277565b5050505b505050565b81516001600160401b03811115620002b157620002b1620001f5565b620002c981620002c2845462000209565b8462000243565b602080601f831160018114620002ff575f8415620002e75750858301515b5f19600386901b1c1916600185901b1785556200028c565b5f85815260208120601f198616915b828110156200032f578886015182559484019460019091019084016200030e565b50858210156200034d57878501515f19600388901b60f8161c191681555b5050505050600190811b01905550565b5f6020808352835180828501525f5b818110156200038a578581018301518582016040015282016200036c565b505f604082860101526040601f19601f8301168501019250505092915050565b805160208083015191908110156200023d575f1960209190910360031b1b16919050565b60805160a05160c05160e0516101005161012051610140516112e2620004205f395f6103d401525f6103a901525f610a6001525f610a3801525f61099301525f6109bd01525f6109e701526112e25ff3fe608060405234801561000f575f80fd5b5060043610610106575f3560e01c806370a082311161009e57806395d89b411161006e57806395d89b4114610218578063a457c2d714610220578063a9059cbb14610233578063d505accf14610246578063dd62ed3e14610259575f80fd5b806370a08231146101af57806379cc6790146101d75780637ecebe00146101ea57806384b0196e146101fd575f80fd5b8063313ce567116100d9578063313ce567146101705780633644e5151461017f578063395093511461018757806340c10f191461019a575f80fd5b806306fdde031461010a578063095ea7b31461012857806318160ddd1461014b57806323b872dd1461015d575b5f80fd5b61011261026c565b60405161011f9190611067565b60405180910390f35b61013b61013636600461109b565b6102fc565b604051901515815260200161011f565b6002545b60405190815260200161011f565b61013b61016b3660046110c3565b610315565b6040516012815260200161011f565b61014f610338565b61013b61019536600461109b565b610346565b6101ad6101a836600461109b565b610367565b005b61014f6101bd3660046110fc565b6001600160a01b03165f9081526020819052604090205490565b6101ad6101e536600461109b565b610375565b61014f6101f83660046110fc565b61037f565b61020561039c565b60405161011f9796959493929190611115565b610112610423565b61013b61022e36600461109b565b610432565b61013b61024136600461109b565b6104b1565b6101ad6102543660046111a9565b6104be565b61014f610267366004611216565b61061f565b60606003805461027b90611247565b80601f01602080910402602001604051908101604052809291908181526020018280546102a790611247565b80156102f25780601f106102c9576101008083540402835291602001916102f2565b820191905f5260205f20905b8154815290600101906020018083116102d557829003601f168201915b5050505050905090565b5f33610309818585610649565b60019150505b92915050565b5f3361032285828561076d565b61032d8585856107e5565b506001949350505050565b5f610341610987565b905090565b5f33610309818585610358838361061f565b6103629190611279565b610649565b6103718282610ab0565b5050565b6103718282610b6d565b6001600160a01b0381165f9081526007602052604081205461030f565b5f606080828080836103cf7f00000000000000000000000000000000000000000000000000000000000000006005610c95565b6103fa7f00000000000000000000000000000000000000000000000000000000000000006006610c95565b604080515f80825260208201909252600f60f81b9b939a50919850469750309650945092509050565b60606004805461027b90611247565b5f338161043f828661061f565b9050838110156104a45760405162461bcd60e51b815260206004820152602560248201527f45524332303a2064656372656173656420616c6c6f77616e63652062656c6f77604482015264207a65726f60d81b60648201526084015b60405180910390fd5b61032d8286868403610649565b5f336103098185856107e5565b8342111561050e5760405162461bcd60e51b815260206004820152601d60248201527f45524332305065726d69743a206578706972656420646561646c696e65000000604482015260640161049b565b5f7f6e71edae12b1b97f4d1f60370fef10105fa2faae0126114a169c64845d6126c988888861053c8c610d3e565b6040805160208101969096526001600160a01b0394851690860152929091166060840152608083015260a082015260c0810186905260e0016040516020818303038152906040528051906020012090505f61059682610d65565b90505f6105a582878787610d91565b9050896001600160a01b0316816001600160a01b0316146106085760405162461bcd60e51b815260206004820152601e60248201527f45524332305065726d69743a20696e76616c6964207369676e61747572650000604482015260640161049b565b6106138a8a8a610649565b50505050505050505050565b6001600160a01b039182165f90815260016020908152604080832093909416825291909152205490565b6001600160a01b0383166106ab5760405162461bcd60e51b8152602060048201526024808201527f45524332303a20617070726f76652066726f6d20746865207a65726f206164646044820152637265737360e01b606482015260840161049b565b6001600160a01b03821661070c5760405162461bcd60e51b815260206004820152602260248201527f45524332303a20617070726f766520746f20746865207a65726f206164647265604482015261737360f01b606482015260840161049b565b6001600160a01b038381165f8181526001602090815260408083209487168084529482529182902085905590518481527f8c5be1e5ebec7d5bd14f71427d1e84f3dd0314c0f7b2291e5b200ac8c7c3b92591015b60405180910390a3505050565b5f610778848461061f565b90505f1981146107df57818110156107d25760405162461bcd60e51b815260206004820152601d60248201527f45524332303a20696e73756666696369656e7420616c6c6f77616e6365000000604482015260640161049b565b6107df8484848403610649565b50505050565b6001600160a01b0383166108495760405162461bcd60e51b815260206004820152602560248201527f45524332303a207472616e736665722066726f6d20746865207a65726f206164604482015264647265737360d81b606482015260840161049b565b6001600160a01b0382166108ab5760405162461bcd60e51b815260206004820152602360248201527f45524332303a207472616e7366657220746f20746865207a65726f206164647260448201526265737360e81b606482015260840161049b565b6001600160a01b0383165f90815260208190526040902054818110156109225760405162461bcd60e51b815260206004820152602660248201527f45524332303a207472616e7366657220616d6f756e7420657863656564732062604482015265616c616e636560d01b606482015260840161049b565b6001600160a01b038481165f81815260208181526040808320878703905593871680835291849020805487019055925185815290927fddf252ad1be2c89b69c2b068fc378daa952ba7f163c4a11628f55a4df523b3ef910160405180910390a36107df565b5f306001600160a01b037f0000000000000000000000000000000000000000000000000000000000000000161480156109df57507f000000000000000000000000000000000000000000000000000000000000000046145b15610a0957507f000000000000000000000000000000000000000000000000000000000000000090565b610341604080517f8b73c3c69bb8fe3d512ecc4cf759cc79239f7b179b0ffacaa9a75d522b39400f60208201527f0000000000000000000000000000000000000000000000000000000000000000918101919091527f000000000000000000000000000000000000000000000000000000000000000060608201524660808201523060a08201525f9060c00160405160208183030381529060405280519060200120905090565b6001600160a01b038216610b065760405162461bcd60e51b815260206004820152601f60248201527f45524332303a206d696e7420746f20746865207a65726f206164647265737300604482015260640161049b565b8060025f828254610b179190611279565b90915550506001600160a01b0382165f81815260208181526040808320805486019055518481527fddf252ad1be2c89b69c2b068fc378daa952ba7f163c4a11628f55a4df523b3ef910160405180910390a35050565b6001600160a01b038216610bcd5760405162461bcd60e51b815260206004820152602160248201527f45524332303a206275726e2066726f6d20746865207a65726f206164647265736044820152607360f81b606482015260840161049b565b6001600160a01b0382165f9081526020819052604090205481811015610c405760405162461bcd60e51b815260206004820152602260248201527f45524332303a206275726e20616d6f756e7420657863656564732062616c616e604482015261636560f01b606482015260840161049b565b6001600160a01b0383165f818152602081815260408083208686039055600280548790039055518581529192917fddf252ad1be2c89b69c2b068fc378daa952ba7f163c4a11628f55a4df523b3ef9101610760565b606060ff8314610caf57610ca883610db7565b905061030f565b818054610cbb90611247565b80601f0160208091040260200160405190810160405280929190818152602001828054610ce790611247565b8015610d325780601f10610d0957610100808354040283529160200191610d32565b820191905f5260205f20905b815481529060010190602001808311610d1557829003601f168201915b5050505050905061030f565b6001600160a01b0381165f9081526007602052604090208054600181018255905b50919050565b5f61030f610d71610987565b8360405161190160f01b8152600281019290925260228201526042902090565b5f805f610da087878787610df4565b91509150610dad81610eb1565b5095945050505050565b60605f610dc383610ffd565b6040805160208082528183019092529192505f91906020820181803683375050509182525060208101929092525090565b5f807f7fffffffffffffffffffffffffffffff5d576e7357a4501ddfe92f46681b20a0831115610e2957505f90506003610ea8565b604080515f8082526020820180845289905260ff881692820192909252606081018690526080810185905260019060a0016020604051602081039080840390855afa158015610e7a573d5f803e3d5ffd5b5050604051601f1901519150506001600160a01b038116610ea2575f60019250925050610ea8565b91505f90505b94509492505050565b5f816004811115610ec457610ec4611298565b03610ecc5750565b6001816004811115610ee057610ee0611298565b03610f2d5760405162461bcd60e51b815260206004820152601860248201527f45434453413a20696e76616c6964207369676e61747572650000000000000000604482015260640161049b565b6002816004811115610f4157610f41611298565b03610f8e5760405162461bcd60e51b815260206004820152601f60248201527f45434453413a20696e76616c6964207369676e6174757265206c656e67746800604482015260640161049b565b6003816004811115610fa257610fa2611298565b03610ffa5760405162461bcd60e51b815260206004820152602260248201527f45434453413a20696e76616c6964207369676e6174757265202773272076616c604482015261756560f01b606482015260840161049b565b50565b5f60ff8216601f81111561030f57604051632cd44ac360e21b815260040160405180910390fd5b5f81518084525f5b818110156110485760208185018101518683018201520161102c565b505f602082860101526020601f19601f83011685010191505092915050565b602081525f6110796020830184611024565b9392505050565b80356001600160a01b0381168114611096575f80fd5b919050565b5f80604083850312156110ac575f80fd5b6110b583611080565b946020939093013593505050565b5f805f606084860312156110d5575f80fd5b6110de84611080565b92506110ec60208501611080565b9150604084013590509250925092565b5f6020828403121561110c575f80fd5b61107982611080565b60ff60f81b881681525f602060e08184015261113460e084018a611024565b8381036040850152611146818a611024565b606085018990526001600160a01b038816608086015260a0850187905284810360c086015285518082528387019250908301905f5b818110156111975783518352928401929184019160010161117b565b50909c9b505050505050505050505050565b5f805f805f805f60e0888a0312156111bf575f80fd5b6111c888611080565b96506111d660208901611080565b95506040880135945060608801359350608088013560ff811681146111f9575f80fd5b9699959850939692959460a0840135945060c09093013592915050565b5f8060408385031215611227575f80fd5b61123083611080565b915061123e60208401611080565b90509250929050565b600181811c9082168061125b57607f821691505b602082108103610d5f57634e487b7160e01b5f52602260045260245ffd5b8082018082111561030f57634e487b7160e01b5f52601160045260245ffd5b634e487b7160e01b5f52602160045260245ffdfea2646970667358221220d7fe059a157e445d2264ecd188383fe615f992f85d3efd734c0b0b81008a28f364736f6c63430008140033",
    "sourcePath": "/Users/sophielamo/solsticeLend/backend/contracts/lending/SolsticeCoin.sol",
    "compiler": {
        "name": "solc",
        "version": "0.8.20+commit.a1b79de6"
    },
    "functionHashes": {
        "DOMAIN_SEPARATOR()": "3644e515",
        "allowance(address,address)": "dd62ed3e",
        "approve(address,uint256)": "095ea7b3",
        "balanceOf(address)": "70a08231",
        "burnFrom(address,uint256)": "79cc6790",
        "decimals()": "313ce567",
        "decreaseAllowance(address,uint256)": "a457c2d7",
        "eip712Domain()": "84b0196e",
        "increaseAllowance(address,uint256)": "39509351",
        "mint(address,uint256)": "40c10f19",
        "name()": "06fdde03",
        "nonces(address)": "7ecebe00",
        "permit(address,address,uint256,uint256,uint8,bytes32,bytes32)": "d505accf",
        "symbol()": "95d89b41",
        "totalSupply()": "18160ddd",
        "transfer(address,uint256)": "a9059cbb",
        "transferFrom(address,address,uint256)": "23b872dd"
    },
    "gasEstimates": {
        "creation": {
            "codeDepositCost": "966800",
            "executionCost": "infinite",
            "totalCost": "infinite"
        },
        "external": {
            "DOMAIN_SEPARATOR()": "infinite",
            "allowance(address,address)": "infinite",
            "approve(address,uint256)": "24648",
            "balanceOf(address)": "2560",
            "burnFrom(address,uint256)": "50906",
            "decimals()": "199",
            "decreaseAllowance(address,uint256)": "26990",
            "eip712Domain()": "infinite",
            "increaseAllowance(address,uint256)": "infinite",
            "mint(address,uint256)": "50890",
            "name()": "infinite",
            "nonces(address)": "2635",
            "permit(address,address,uint256,uint256,uint8,bytes32,bytes32)": "infinite",
            "symbol()": "infinite",
            "totalSupply()": "2348",
            "transfer(address,uint256)": "51111",
            "transferFrom(address,address,uint256)": "infinite"
        }
    }
}