{
    "contractName": "Vault",
    "abi": [
        {
            "inputs": [
                {
                    "internalType": "contract SolsticeCoin",
                    "name": "_token",
                    "type": "address"
                },
                {
                    "internalType": "contract PriceConsumerV3",
                    "name": "_oracle",
                    "type": "address"
                }
            ],
            "stateMutability": "nonpayable",
            "type": "constructor"
        },
        {
            "anonymous": false,
            "inputs": [
                {
                    "indexed": false,
                    "internalType": "uint256",
                    "name": "collateralAmount",
                    "type": "uint256"
                },
                {
                    "indexed": false,
                    "internalType": "uint256",
                    "name": "debtAmount",
                    "type": "uint256"
                }
            ],
            "name": "Deposit",
            "type": "event"
        },
        {
            "anonymous": false,
            "inputs": [
                {
                    "indexed": true,
                    "internalType": "address",
                    "name": "previousOwner",
                    "type": "address"
                },
                {
                    "indexed": true,
                    "internalType": "address",
                    "name": "newOwner",
                    "type": "address"
                }
            ],
            "name": "OwnershipTransferred",
            "type": "event"
        },
        {
            "anonymous": false,
            "inputs": [
                {
                    "indexed": false,
                    "internalType": "uint256",
                    "name": "collateralAmount",
                    "type": "uint256"
                },
                {
                    "indexed": false,
                    "internalType": "uint256",
                    "name": "repaymentAmount",
                    "type": "uint256"
                }
            ],
            "name": "Withdraw",
            "type": "event"
        },
        {
            "inputs": [
                {
                    "internalType": "uint256",
                    "name": "amountToDeposit",
                    "type": "uint256"
                },
                {
                    "internalType": "uint256",
                    "name": "requestedLoanAmount",
                    "type": "uint256"
                }
            ],
            "name": "deposit",
            "outputs": [],
            "stateMutability": "payable",
            "type": "function"
        },
        {
            "inputs": [
                {
                    "internalType": "uint256",
                    "name": "repaymentAmount",
                    "type": "uint256"
                }
            ],
            "name": "estimateCollateralAmount",
            "outputs": [
                {
                    "internalType": "uint256",
                    "name": "collateralAmount",
                    "type": "uint256"
                }
            ],
            "stateMutability": "view",
            "type": "function"
        },
        {
            "inputs": [
                {
                    "internalType": "uint256",
                    "name": "depositAmount",
                    "type": "uint256"
                }
            ],
            "name": "estimateTokenAmount",
            "outputs": [
                {
                    "internalType": "uint256",
                    "name": "tokenAmount",
                    "type": "uint256"
                }
            ],
            "stateMutability": "view",
            "type": "function"
        },
        {
            "inputs": [],
            "name": "getEthUSDPrice",
            "outputs": [
                {
                    "internalType": "uint256",
                    "name": "",
                    "type": "uint256"
                }
            ],
            "stateMutability": "view",
            "type": "function"
        },
        {
            "inputs": [],
            "name": "getOracle",
            "outputs": [
                {
                    "internalType": "address",
                    "name": "",
                    "type": "address"
                }
            ],
            "stateMutability": "view",
            "type": "function"
        },
        {
            "inputs": [],
            "name": "getToken",
            "outputs": [
                {
                    "internalType": "address",
                    "name": "",
                    "type": "address"
                }
            ],
            "stateMutability": "view",
            "type": "function"
        },
        {
            "inputs": [
                {
                    "internalType": "address",
                    "name": "userAddress",
                    "type": "address"
                }
            ],
            "name": "getVault",
            "outputs": [
                {
                    "components": [
                        {
                            "internalType": "uint256",
                            "name": "collateralAmount",
                            "type": "uint256"
                        },
                        {
                            "internalType": "uint256",
                            "name": "debtAmount",
                            "type": "uint256"
                        }
                    ],
                    "internalType": "struct IVault.Vault",
                    "name": "vault",
                    "type": "tuple"
                }
            ],
            "stateMutability": "view",
            "type": "function"
        },
        {
            "inputs": [],
            "name": "owner",
            "outputs": [
                {
                    "internalType": "address",
                    "name": "",
                    "type": "address"
                }
            ],
            "stateMutability": "view",
            "type": "function"
        },
        {
            "inputs": [],
            "name": "renounceOwnership",
            "outputs": [],
            "stateMutability": "nonpayable",
            "type": "function"
        },
        {
            "inputs": [
                {
                    "internalType": "address",
                    "name": "_oracle",
                    "type": "address"
                }
            ],
            "name": "setOracle",
            "outputs": [],
            "stateMutability": "nonpayable",
            "type": "function"
        },
        {
            "inputs": [],
            "name": "token",
            "outputs": [
                {
                    "internalType": "contract SolsticeCoin",
                    "name": "",
                    "type": "address"
                }
            ],
            "stateMutability": "view",
            "type": "function"
        },
        {
            "inputs": [
                {
                    "internalType": "address",
                    "name": "newOwner",
                    "type": "address"
                }
            ],
            "name": "transferOwnership",
            "outputs": [],
            "stateMutability": "nonpayable",
            "type": "function"
        },
        {
            "inputs": [
                {
                    "internalType": "uint256",
                    "name": "repaymentAmount",
                    "type": "uint256"
                }
            ],
            "name": "withdraw",
            "outputs": [],
            "stateMutability": "nonpayable",
            "type": "function"
        }
    ],
    "bytecode": "608060405234801561000f575f80fd5b50604051610a81380380610a8183398101604081905261002e916100ce565b61003733610068565b600280546001600160a01b039384166001600160a01b03199182161790915560038054929093169116179055610106565b5f80546001600160a01b038381166001600160a01b0319831681178455604051919092169283917f8be0079c531659141344cd1fd0a4f28419497f9722a3daafe3b4186f6b6457e09190a35050565b6001600160a01b03811681146100cb575f80fd5b50565b5f80604083850312156100df575f80fd5b82516100ea816100b7565b60208401519092506100fb816100b7565b809150509250929050565b61096e806101135f395ff3fe6080604052600436106100bf575f3560e01c80637adbf9731161007c578063d84549d711610057578063d84549d71461024c578063e2bbb15814610260578063f2fde38b14610273578063fc0c546a14610292575f80fd5b80637adbf973146101f4578063833b1fce146102135780638da5cb5b14610230575f80fd5b80630eb9af38146100c35780631b05ab791461014257806321df0da71461016f5780632e1a7d4d146101a057806356bfdaf5146101c1578063715018a6146101e0575b5f80fd5b3480156100ce575f80fd5b506101226100dd36600461084d565b604080518082019091525f8082526020820152506001600160a01b03165f90815260016020818152604092839020835180850190945280548452909101549082015290565b604080518251815260209283015192810192909252015b60405180910390f35b34801561014d575f80fd5b5061016161015c36600461087a565b6102b1565b604051908152602001610139565b34801561017a575f80fd5b506002546001600160a01b03165b6040516001600160a01b039091168152602001610139565b3480156101ab575f80fd5b506101bf6101ba36600461087a565b6102ca565b005b3480156101cc575f80fd5b506101616101db36600461087a565b61050e565b3480156101eb575f80fd5b506101bf610521565b3480156101ff575f80fd5b506101bf61020e36600461084d565b610534565b34801561021e575f80fd5b506003546001600160a01b0316610188565b34801561023b575f80fd5b505f546001600160a01b0316610188565b348015610257575f80fd5b5061016161055e565b6101bf61026e366004610891565b6105eb565b34801561027e575f80fd5b506101bf61028d36600461084d565b61072c565b34801561029d575f80fd5b50600254610188906001600160a01b031681565b5f6102ba61055e565b6102c490836108c5565b92915050565b335f90815260016020819052604090912001548111156103315760405162461bcd60e51b815260206004820152601760248201527f7769746864726177206c696d697420657863656564656400000000000000000060448201526064015b60405180910390fd5b6002546040516370a0823160e01b815233600482015282916001600160a01b0316906370a0823190602401602060405180830381865afa158015610377573d5f803e3d5ffd5b505050506040513d601f19601f8201168201806040525081019061039b91906108dc565b10156103e95760405162461bcd60e51b815260206004820152601c60248201527f6e6f7420656e6f75676820746f6b656e7320696e2062616c616e6365000000006044820152606401610328565b5f6103f261055e565b6103fc90836108f3565b60025460405163079cc67960e41b8152336004820152602481018590529192506001600160a01b0316906379cc6790906044015f604051808303815f87803b158015610446575f80fd5b505af1158015610458573d5f803e3d5ffd5b5050335f908152600160205260408120805485945090925061047b908490610912565b9091555050335f90815260016020819052604082200180548492906104a1908490610912565b9091555050604051339082156108fc029083905f818181858888f193505050501580156104d0573d5f803e3d5ffd5b5060408051828152602081018490527f56ca301a9219608c91e7bcee90e083c19671d2cdcc96752c7af291cee5f9c8c8910160405180910390a15050565b5f61051761055e565b6102c490836108f3565b6105296107a5565b6105325f6107fe565b565b61053c6107a5565b600380546001600160a01b0319166001600160a01b0392909216919091179055565b5f8060035f9054906101000a90046001600160a01b03166001600160a01b0316638e15f4736040518163ffffffff1660e01b8152600401602060405180830381865afa1580156105b0573d5f803e3d5ffd5b505050506040513d601f19601f820116820180604052508101906105d491906108dc565b90506105e5816402540be4006108c5565b91505090565b3482146106315760405162461bcd60e51b81526020600482015260146024820152731a5b98dbdc9c9958dd0811551208185b5bdd5b9d60621b6044820152606401610328565b5f61063a61055e565b61064490836108c5565b6002546040516340c10f1960e01b8152336004820152602481018390529192506001600160a01b0316906340c10f19906044015f604051808303815f87803b15801561068e575f80fd5b505af11580156106a0573d5f803e3d5ffd5b5050335f90815260016020526040812080548694509092506106c3908490610925565b9091555050335f90815260016020819052604082200180548392906106e9908490610925565b909155505060408051838152602081018390527fa3af609bf46297028ce551832669030f9effef2b02606d02cbbcc40fe6b47c55910160405180910390a1505050565b6107346107a5565b6001600160a01b0381166107995760405162461bcd60e51b815260206004820152602660248201527f4f776e61626c653a206e6577206f776e657220697320746865207a65726f206160448201526564647265737360d01b6064820152608401610328565b6107a2816107fe565b50565b5f546001600160a01b031633146105325760405162461bcd60e51b815260206004820181905260248201527f4f776e61626c653a2063616c6c6572206973206e6f7420746865206f776e65726044820152606401610328565b5f80546001600160a01b038381166001600160a01b0319831681178455604051919092169283917f8be0079c531659141344cd1fd0a4f28419497f9722a3daafe3b4186f6b6457e09190a35050565b5f6020828403121561085d575f80fd5b81356001600160a01b0381168114610873575f80fd5b9392505050565b5f6020828403121561088a575f80fd5b5035919050565b5f80604083850312156108a2575f80fd5b50508035926020909101359150565b634e487b7160e01b5f52601160045260245ffd5b80820281158282048414176102c4576102c46108b1565b5f602082840312156108ec575f80fd5b5051919050565b5f8261090d57634e487b7160e01b5f52601260045260245ffd5b500490565b818103818111156102c4576102c46108b1565b808201808211156102c4576102c46108b156fea2646970667358221220e3944dc7b816cc519d9b5b231beb3aa4a1341bdea96b46af2953fbc165e01bf164736f6c63430008140033",
    "sourcePath": "/Users/sophielamo/solsticeLend/backend/contracts/lending/Vault.sol",
    "compiler": {
        "name": "solc",
        "version": "0.8.20+commit.a1b79de6"
    },
    "functionHashes": {
        "deposit(uint256,uint256)": "e2bbb158",
        "estimateCollateralAmount(uint256)": "56bfdaf5",
        "estimateTokenAmount(uint256)": "1b05ab79",
        "getEthUSDPrice()": "d84549d7",
        "getOracle()": "833b1fce",
        "getToken()": "21df0da7",
        "getVault(address)": "0eb9af38",
        "owner()": "8da5cb5b",
        "renounceOwnership()": "715018a6",
        "setOracle(address)": "7adbf973",
        "token()": "fc0c546a",
        "transferOwnership(address)": "f2fde38b",
        "withdraw(uint256)": "2e1a7d4d"
    },
    "gasEstimates": {
        "creation": {
            "codeDepositCost": "482800",
            "executionCost": "infinite",
            "totalCost": "infinite"
        },
        "external": {
            "deposit(uint256,uint256)": "infinite",
            "estimateCollateralAmount(uint256)": "infinite",
            "estimateTokenAmount(uint256)": "infinite",
            "getEthUSDPrice()": "infinite",
            "getOracle()": "2375",
            "getToken()": "2364",
            "getVault(address)": "4761",
            "owner()": "2396",
            "renounceOwnership()": "infinite",
            "setOracle(address)": "26720",
            "token()": "2424",
            "transferOwnership(address)": "28360",
            "withdraw(uint256)": "infinite"
        }
    }
}