{
    "contractName": "Vault",
    "abi": [
        {
            "inputs": [
                {
                    "internalType": "address",
                    "name": "_token",
                    "type": "address"
                },
                {
                    "internalType": "address",
                    "name": "_oracleAddress",
                    "type": "address"
                }
            ],
            "stateMutability": "nonpayable",
            "type": "constructor"
        },
        {
            "inputs": [
                {
                    "internalType": "address",
                    "name": "",
                    "type": "address"
                }
            ],
            "name": "collateralAmount",
            "outputs": [
                {
                    "internalType": "uint256",
                    "name": "",
                    "type": "uint256"
                }
            ],
            "stateMutability": "view",
            "type": "function"
        },
        {
            "inputs": [
                {
                    "internalType": "address",
                    "name": "",
                    "type": "address"
                }
            ],
            "name": "debtAmount",
            "outputs": [
                {
                    "internalType": "uint256",
                    "name": "",
                    "type": "uint256"
                }
            ],
            "stateMutability": "view",
            "type": "function"
        },
        {
            "inputs": [
                {
                    "internalType": "uint256",
                    "name": "requestedLoanAmount",
                    "type": "uint256"
                }
            ],
            "name": "deposit",
            "outputs": [],
            "stateMutability": "payable",
            "type": "function"
        },
        {
            "inputs": [],
            "name": "getEthUSDPrice",
            "outputs": [
                {
                    "internalType": "uint256",
                    "name": "",
                    "type": "uint256"
                }
            ],
            "stateMutability": "view",
            "type": "function"
        },
        {
            "inputs": [],
            "name": "getOracle",
            "outputs": [
                {
                    "internalType": "address",
                    "name": "",
                    "type": "address"
                }
            ],
            "stateMutability": "view",
            "type": "function"
        },
        {
            "inputs": [],
            "name": "getToken",
            "outputs": [
                {
                    "internalType": "address",
                    "name": "",
                    "type": "address"
                }
            ],
            "stateMutability": "view",
            "type": "function"
        },
        {
            "inputs": [],
            "name": "token",
            "outputs": [
                {
                    "internalType": "contract SolsticeCoin",
                    "name": "",
                    "type": "address"
                }
            ],
            "stateMutability": "view",
            "type": "function"
        },
        {
            "inputs": [],
            "name": "totalSupply",
            "outputs": [
                {
                    "internalType": "uint256",
                    "name": "",
                    "type": "uint256"
                }
            ],
            "stateMutability": "view",
            "type": "function"
        },
        {
            "inputs": [
                {
                    "internalType": "address",
                    "name": "",
                    "type": "address"
                }
            ],
            "name": "vaults",
            "outputs": [
                {
                    "internalType": "uint256",
                    "name": "collateralAmount",
                    "type": "uint256"
                },
                {
                    "internalType": "uint256",
                    "name": "debtAmount",
                    "type": "uint256"
                }
            ],
            "stateMutability": "view",
            "type": "function"
        },
        {
            "inputs": [
                {
                    "internalType": "uint256",
                    "name": "repaymentAmount",
                    "type": "uint256"
                }
            ],
            "name": "withdraw",
            "outputs": [],
            "stateMutability": "nonpayable",
            "type": "function"
        }
    ],
    "bytecode": "608060405234801561000f575f80fd5b5060405161077538038061077583398101604081905261002e91610079565b5f80546001600160a01b039384166001600160a01b031991821617909155600180549290931691161790556100aa565b80516001600160a01b0381168114610074575f80fd5b919050565b5f806040838503121561008a575f80fd5b6100938361005e565b91506100a16020840161005e565b90509250929050565b6106be806100b75f395ff3fe60806040526004361061008f575f3560e01c8063a622ee7c11610057578063a622ee7c14610154578063b2cd0fdc1461019b578063b6b55f25146101c6578063d84549d7146101d9578063fc0c546a146101ed575f80fd5b806318160ddd1461009357806321df0da7146100bb5780632e1a7d4d146100eb57806354a9f42c1461010c578063833b1fce14610137575b5f80fd5b34801561009e575f80fd5b506100a860025481565b6040519081526020015b60405180910390f35b3480156100c6575f80fd5b505f546001600160a01b03165b6040516001600160a01b0390911681526020016100b2565b3480156100f6575f80fd5b5061010a6101053660046105b7565b61020b565b005b348015610117575f80fd5b506100a86101263660046105ce565b60036020525f908152604090205481565b348015610142575f80fd5b506001546001600160a01b03166100d3565b34801561015f575f80fd5b5061018661016e3660046105ce565b60056020525f90815260409020805460019091015482565b604080519283526020830191909152016100b2565b3480156101a6575f80fd5b506100a86101b53660046105ce565b60046020525f908152604090205481565b61010a6101d43660046105b7565b6103bf565b3480156101e4575f80fd5b506100a8610471565b3480156101f8575f80fd5b505f546100d3906001600160a01b031681565b335f908152600560205260409020600101548111156102715760405162461bcd60e51b815260206004820152601760248201527f7769746864726177206c696d697420657863656564656400000000000000000060448201526064015b60405180910390fd5b5f5460405163152a7d0b60e21b815233600482015282916001600160a01b0316906354a9f42c90602401602060405180830381865afa1580156102b6573d5f803e3d5ffd5b505050506040513d601f19601f820116820180604052508101906102da91906105fb565b10156103285760405162461bcd60e51b815260206004820152601c60248201527f6e6f7420656e6f75676820746f6b656e7320696e2062616c616e6365000000006044820152606401610268565b5f610331610471565b61033b9083610626565b9050610347338361053d565b335f9081526005602052604081208054839290610365908490610645565b9091555050335f908152600560205260408120600101805484929061038b908490610645565b9091555050604051339082156108fc029083905f818181858888f193505050501580156103ba573d5f803e3d5ffd5b505050565b3481146104055760405162461bcd60e51b81526020600482015260146024820152731a5b98dbdc9c9958dd0811551208185b5bdd5b9d60621b6044820152606401610268565b5f61040e610471565b610418908361065e565b9050610424338261057a565b335f9081526005602052604081208054849290610442908490610675565b9091555050335f9081526005602052604081206001018054839290610468908490610675565b90915550505050565b5f8060015f9054906101000a90046001600160a01b03166001600160a01b0316638e15f4736040518163ffffffff1660e01b8152600401602060405180830381865afa1580156104c3573d5f803e3d5ffd5b505050506040513d601f19601f820116820180604052508101906104e791906105fb565b90505f81136105385760405162461bcd60e51b815260206004820152601960248201527f496e76616c69642070726963652066726f6d204f7261636c65000000000000006044820152606401610268565b919050565b8060025f82825461054e9190610645565b90915550506001600160a01b0382165f9081526003602052604081208054839290610468908490610645565b8060025f82825461058b9190610675565b90915550506001600160a01b0382165f9081526003602052604081208054839290610468908490610675565b5f602082840312156105c7575f80fd5b5035919050565b5f602082840312156105de575f80fd5b81356001600160a01b03811681146105f4575f80fd5b9392505050565b5f6020828403121561060b575f80fd5b5051919050565b634e487b7160e01b5f52601160045260245ffd5b5f8261064057634e487b7160e01b5f52601260045260245ffd5b500490565b8181038181111561065857610658610612565b92915050565b808202811582820484141761065857610658610612565b808201808211156106585761065861061256fea264697066735822122021bf2188628c5bbab0daea143c1606c1657b7066f210b95626e90485200f391364736f6c63430008140033",
    "sourcePath": "/Users/sophielamo/defi-frontend/backend/contracts/lending/Vault.sol",
    "compiler": {
        "name": "solc",
        "version": "0.8.20+commit.a1b79de6"
    },
    "functionHashes": {
        "collateralAmount(address)": "b2cd0fdc",
        "debtAmount(address)": "54a9f42c",
        "deposit(uint256)": "b6b55f25",
        "getEthUSDPrice()": "d84549d7",
        "getOracle()": "833b1fce",
        "getToken()": "21df0da7",
        "token()": "fc0c546a",
        "totalSupply()": "18160ddd",
        "vaults(address)": "a622ee7c",
        "withdraw(uint256)": "2e1a7d4d"
    },
    "gasEstimates": {
        "creation": {
            "codeDepositCost": "345200",
            "executionCost": "infinite",
            "totalCost": "infinite"
        },
        "external": {
            "collateralAmount(address)": "2492",
            "debtAmount(address)": "2537",
            "deposit(uint256)": "infinite",
            "getEthUSDPrice()": "infinite",
            "getOracle()": "2419",
            "getToken()": "2341",
            "token()": "2423",
            "totalSupply()": "2284",
            "vaults(address)": "4620",
            "withdraw(uint256)": "infinite"
        },
        "internal": {
            "_burn(address,uint256)": "infinite",
            "_mint(address,uint256)": "infinite"
        }
    }
}