{
    "contractName": "WeatherConsumer",
    "abi": [
        {
            "inputs": [
                {
                    "internalType": "address",
                    "name": "router",
                    "type": "address"
                },
                {
                    "internalType": "bytes32",
                    "name": "_donId",
                    "type": "bytes32"
                }
            ],
            "stateMutability": "nonpayable",
            "type": "constructor"
        },
        {
            "inputs": [],
            "name": "EmptyArgs",
            "type": "error"
        },
        {
            "inputs": [],
            "name": "EmptySource",
            "type": "error"
        },
        {
            "inputs": [],
            "name": "NoInlineSecrets",
            "type": "error"
        },
        {
            "inputs": [],
            "name": "OnlyRouterCanFulfill",
            "type": "error"
        },
        {
            "anonymous": false,
            "inputs": [
                {
                    "indexed": true,
                    "internalType": "address",
                    "name": "from",
                    "type": "address"
                },
                {
                    "indexed": true,
                    "internalType": "address",
                    "name": "to",
                    "type": "address"
                }
            ],
            "name": "OwnershipTransferRequested",
            "type": "event"
        },
        {
            "anonymous": false,
            "inputs": [
                {
                    "indexed": true,
                    "internalType": "address",
                    "name": "from",
                    "type": "address"
                },
                {
                    "indexed": true,
                    "internalType": "address",
                    "name": "to",
                    "type": "address"
                }
            ],
            "name": "OwnershipTransferred",
            "type": "event"
        },
        {
            "anonymous": false,
            "inputs": [
                {
                    "indexed": true,
                    "internalType": "bytes32",
                    "name": "id",
                    "type": "bytes32"
                }
            ],
            "name": "RequestFulfilled",
            "type": "event"
        },
        {
            "anonymous": false,
            "inputs": [
                {
                    "indexed": true,
                    "internalType": "bytes32",
                    "name": "id",
                    "type": "bytes32"
                }
            ],
            "name": "RequestSent",
            "type": "event"
        },
        {
            "inputs": [],
            "name": "acceptOwnership",
            "outputs": [],
            "stateMutability": "nonpayable",
            "type": "function"
        },
        {
            "inputs": [],
            "name": "donId",
            "outputs": [
                {
                    "internalType": "bytes32",
                    "name": "",
                    "type": "bytes32"
                }
            ],
            "stateMutability": "view",
            "type": "function"
        },
        {
            "inputs": [
                {
                    "internalType": "bytes32",
                    "name": "requestId",
                    "type": "bytes32"
                },
                {
                    "internalType": "bytes",
                    "name": "response",
                    "type": "bytes"
                },
                {
                    "internalType": "bytes",
                    "name": "err",
                    "type": "bytes"
                }
            ],
            "name": "handleOracleFulfillment",
            "outputs": [],
            "stateMutability": "nonpayable",
            "type": "function"
        },
        {
            "inputs": [],
            "name": "owner",
            "outputs": [
                {
                    "internalType": "address",
                    "name": "",
                    "type": "address"
                }
            ],
            "stateMutability": "view",
            "type": "function"
        },
        {
            "inputs": [],
            "name": "s_lastError",
            "outputs": [
                {
                    "internalType": "bytes",
                    "name": "",
                    "type": "bytes"
                }
            ],
            "stateMutability": "view",
            "type": "function"
        },
        {
            "inputs": [],
            "name": "s_lastRequestId",
            "outputs": [
                {
                    "internalType": "bytes32",
                    "name": "",
                    "type": "bytes32"
                }
            ],
            "stateMutability": "view",
            "type": "function"
        },
        {
            "inputs": [],
            "name": "s_lastResponse",
            "outputs": [
                {
                    "internalType": "bytes",
                    "name": "",
                    "type": "bytes"
                }
            ],
            "stateMutability": "view",
            "type": "function"
        },
        {
            "inputs": [
                {
                    "internalType": "string",
                    "name": "source",
                    "type": "string"
                },
                {
                    "internalType": "enum FunctionsRequest.Location",
                    "name": "secretsLocation",
                    "type": "uint8"
                },
                {
                    "internalType": "bytes",
                    "name": "encryptedSecretsReference",
                    "type": "bytes"
                },
                {
                    "internalType": "string[]",
                    "name": "args",
                    "type": "string[]"
                },
                {
                    "internalType": "bytes[]",
                    "name": "bytesArgs",
                    "type": "bytes[]"
                },
                {
                    "internalType": "uint64",
                    "name": "subscriptionId",
                    "type": "uint64"
                },
                {
                    "internalType": "uint32",
                    "name": "callbackGasLimit",
                    "type": "uint32"
                }
            ],
            "name": "sendRequest",
            "outputs": [],
            "stateMutability": "nonpayable",
            "type": "function"
        },
        {
            "inputs": [
                {
                    "internalType": "bytes32",
                    "name": "newDonId",
                    "type": "bytes32"
                }
            ],
            "name": "setDonId",
            "outputs": [],
            "stateMutability": "nonpayable",
            "type": "function"
        },
        {
            "inputs": [
                {
                    "internalType": "address",
                    "name": "to",
                    "type": "address"
                }
            ],
            "name": "transferOwnership",
            "outputs": [],
            "stateMutability": "nonpayable",
            "type": "function"
        }
    ],
    "bytecode": "60a06040523480156200001157600080fd5b50604051620018eb380380620018eb833981016040819052620000349162000183565b6001600160a01b0382166080523380600081620000985760405162461bcd60e51b815260206004820152601860248201527f43616e6e6f7420736574206f776e657220746f207a65726f000000000000000060448201526064015b60405180910390fd5b600080546001600160a01b0319166001600160a01b0384811691909117909155811615620000cb57620000cb81620000d8565b50505060025550620001bf565b336001600160a01b03821603620001325760405162461bcd60e51b815260206004820152601760248201527f43616e6e6f74207472616e7366657220746f2073656c6600000000000000000060448201526064016200008f565b600180546001600160a01b0319166001600160a01b0383811691821790925560008054604051929316917fed8889f560326eb138920d842192f0eb3dd22b4f139c87a2c57538e05bae12789190a350565b600080604083850312156200019757600080fd5b82516001600160a01b0381168114620001af57600080fd5b6020939093015192949293505050565b608051611709620001e26000396000818161016501526108c101526117096000f3fe608060405234801561001057600080fd5b506004361061009e5760003560e01c806379ba50971161006657806379ba5097146101045780638da5cb5b1461010c5780638dbe7b9d14610127578063b1e217491461013e578063f2fde38b1461014757600080fd5b80630ca76175146100a3578063231c1619146100b85780633944ea3a146100cb5780634b0795a8146100e957806378ca5de7146100f1575b600080fd5b6100b66100b1366004610fa2565b61015a565b005b6100b66100c63660046110d9565b6101de565b6100d3610331565b6040516100e09190611215565b60405180910390f35b6100d36103bf565b6100b66100ff366004611228565b6103cc565b6100b66103d9565b6000546040516001600160a01b0390911681526020016100e0565b61013060025481565b6040519081526020016100e0565b61013060035481565b6100b6610155366004611241565b610488565b336001600160a01b037f000000000000000000000000000000000000000000000000000000000000000016146101a35760405163c6829f8360e01b815260040160405180910390fd5b6101ae83838361049c565b60405183907f85e1543bf2f84fe80c6badbce3648c8539ad1df4d2b3d822938ca0538be727e690600090a2505050565b6101e66104bd565b6102276040805160e0810190915280600081526020016000815260200160008152602001606081526020016060815260200160608152602001606081525090565b61026e6000808e8e8080601f016020809104026020016040519081016040528093929190818152602001838380828437600092019190915250879594939250506105129050565b602081018a60028111156102845761028461126a565b908160028111156102975761029761126a565b8152505088888080601f016020809104026020016040519081016040528093929190818152602001838380828437600092019190915250505050608082015285156102f0576102f06102e987896112a3565b8290610590565b831561030a5761030a610303858761132f565b82906105ba565b610320610316826105e4565b84846002546108bc565b600355505050505050505050505050565b6004805461033e90611396565b80601f016020809104026020016040519081016040528092919081815260200182805461036a90611396565b80156103b75780601f1061038c576101008083540402835291602001916103b7565b820191906000526020600020905b81548152906001019060200180831161039a57829003601f168201915b505050505081565b6005805461033e90611396565b6103d46104bd565b600255565b6001546001600160a01b031633146104315760405162461bcd60e51b815260206004820152601660248201527526bab9ba10313290383937b837b9b2b21037bbb732b960511b60448201526064015b60405180910390fd5b60008054336001600160a01b0319808316821784556001805490911690556040516001600160a01b0390921692909183917f8be0079c531659141344cd1fd0a4f28419497f9722a3daafe3b4186f6b6457e091a350565b6104906104bd565b6104998161098e565b50565b60046104a8838261141e565b5060056104b5828261141e565b505050600355565b6000546001600160a01b031633146105105760405162461bcd60e51b815260206004820152601660248201527527b7363c9031b0b63630b1363290313c9037bbb732b960511b6044820152606401610428565b565b8051600003610534576040516322ce3edd60e01b815260040160405180910390fd5b838360028111156105475761054761126a565b9081600281111561055a5761055a61126a565b905250604084018280156105705761057061126a565b908180156105805761058061126a565b9052506060909301929092525050565b80516000036105b25760405163fe936cb760e01b815260040160405180910390fd5b60a090910152565b80516000036105dc5760405163fe936cb760e01b815260040160405180910390fd5b60c090910152565b606060006105f3610100610a37565b905061062c6040518060400160405280600c81526020016b31b7b232a637b1b0ba34b7b760a11b81525082610a5890919063ffffffff16565b825161064a9060028111156106435761064361126a565b8290610a76565b6040805180820190915260088152676c616e677561676560c01b6020820152610674908290610a58565b604083015161068b9080156106435761064361126a565b604080518082019091526006815265736f7572636560d01b60208201526106b3908290610a58565b60608301516106c3908290610a58565b60a08301515115610757576040805180820190915260048152636172677360e01b60208201526106f4908290610a58565b6106fd81610ab3565b60005b8360a001515181101561074d5761073d8460a001518281518110610726576107266114dd565b602002602001015183610a5890919063ffffffff16565b61074681611509565b9050610700565b5061075781610ad7565b6080830151511561081b5760008360200151600281111561077a5761077a61126a565b036107985760405163a80d31f760e01b815260040160405180910390fd5b60408051808201909152600f81526e39b2b1b932ba39a637b1b0ba34b7b760891b60208201526107c9908290610a58565b6107e2836020015160028111156106435761064361126a565b6040805180820190915260078152667365637265747360c81b602082015261080b908290610a58565b608083015161081b908290610af5565b60c083015151156108b45760408051808201909152600981526862797465734172677360b81b6020820152610851908290610a58565b61085a81610ab3565b60005b8360c00151518110156108aa5761089a8460c001518281518110610883576108836114dd565b602002602001015183610af590919063ffffffff16565b6108a381611509565b905061085d565b506108b481610ad7565b515192915050565b6000807f00000000000000000000000000000000000000000000000000000000000000006001600160a01b031663461d27628688600188886040518663ffffffff1660e01b8152600401610914959493929190611522565b6020604051808303816000875af1158015610933573d6000803e3d6000fd5b505050506040513d601f19601f82011682018060405250810190610957919061156b565b60405190915081907f1131472297a800fee664d1d89cfa8f7676ff07189ecc53f80bbb5f4969099db890600090a295945050505050565b336001600160a01b038216036109e65760405162461bcd60e51b815260206004820152601760248201527f43616e6e6f74207472616e7366657220746f2073656c660000000000000000006044820152606401610428565b600180546001600160a01b0319166001600160a01b0383811691821790925560008054604051929316917fed8889f560326eb138920d842192f0eb3dd22b4f139c87a2c57538e05bae12789190a350565b610a3f610eb0565b8051610a4b9083610b02565b5060006020820152919050565b610a658260038351610b7c565b8151610a719082610c9b565b505050565b8151610a839060c2610cc3565b50610aaf8282604051602001610a9b91815260200190565b604051602081830303815290604052610af5565b5050565b610abe816004610d2c565b600181602001818151610ad19190611584565b90525050565b610ae2816007610d2c565b600181602001818151610ad19190611597565b610a658260028351610b7c565b604080518082019091526060815260006020820152610b226020836115aa565b15610b4a57610b326020836115aa565b610b3d906020611597565b610b479083611584565b91505b602080840183905260405180855260008152908184010181811015610b6e57600080fd5b604052508290505b92915050565b6017816001600160401b031611610ba8578251610ba29060e0600585901b168317610cc3565b50505050565b60ff816001600160401b031611610be8578251610bd0906018611fe0600586901b1617610cc3565b508251610ba2906001600160401b0383166001610d43565b61ffff816001600160401b031611610c29578251610c11906019611fe0600586901b1617610cc3565b508251610ba2906001600160401b0383166002610d43565b63ffffffff816001600160401b031611610c6c578251610c5490601a611fe0600586901b1617610cc3565b508251610ba2906001600160401b0383166004610d43565b8251610c8390601b611fe0600586901b1617610cc3565b508251610ba2906001600160401b0383166008610d43565b604080518082019091526060815260006020820152610cbc83838451610dc8565b9392505050565b6040805180820190915260608152600060208201528251516000610ce8826001611584565b905084602001518210610d0957610d0985610d048360026115cc565b610e99565b8451602083820101858153508051821115610d22578181525b5093949350505050565b8151610a7190601f611fe0600585901b1617610cc3565b6040805180820190915260608152600060208201528351516000610d678285611584565b90508560200151811115610d8457610d8486610d048360026115cc565b60006001610d94866101006116c7565b610d9e9190611597565b90508651828101878319825116178152508051831115610dbc578281525b50959695505050505050565b6040805180820190915260608152600060208201528251821115610deb57600080fd5b8351516000610dfa8483611584565b90508560200151811115610e1757610e1786610d048360026115cc565b855180518382016020019160009180851115610e31578482525b505050602086015b60208610610e715780518252610e50602083611584565b9150610e5d602082611584565b9050610e6a602087611597565b9550610e39565b51815160001960208890036101000a0190811690199190911617905250849150509392505050565b8151610ea58383610b02565b50610ba28382610c9b565b6040518060400160405280610ed8604051806040016040528060608152602001600081525090565b8152602001600081525090565b634e487b7160e01b600052604160045260246000fd5b604051601f8201601f191681016001600160401b0381118282101715610f2357610f23610ee5565b604052919050565b60006001600160401b03831115610f4457610f44610ee5565b610f57601f8401601f1916602001610efb565b9050828152838383011115610f6b57600080fd5b828260208301376000602084830101529392505050565b600082601f830112610f9357600080fd5b610cbc83833560208501610f2b565b600080600060608486031215610fb757600080fd5b8335925060208401356001600160401b0380821115610fd557600080fd5b610fe187838801610f82565b93506040860135915080821115610ff757600080fd5b5061100486828701610f82565b9150509250925092565b60008083601f84011261102057600080fd5b5081356001600160401b0381111561103757600080fd5b60208301915083602082850101111561104f57600080fd5b9250929050565b80356003811061106557600080fd5b919050565b60008083601f84011261107c57600080fd5b5081356001600160401b0381111561109357600080fd5b6020830191508360208260051b850101111561104f57600080fd5b80356001600160401b038116811461106557600080fd5b803563ffffffff8116811461106557600080fd5b600080600080600080600080600080600060e08c8e0312156110fa57600080fd5b6001600160401b03808d35111561111057600080fd5b61111d8e8e358f0161100e565b909c509a5061112e60208e01611056565b99508060408e0135111561114157600080fd5b6111518e60408f01358f0161100e565b909950975060608d013581101561116757600080fd5b6111778e60608f01358f0161106a565b909750955060808d013581101561118d57600080fd5b5061119e8d60808e01358e0161106a565b90945092506111af60a08d016110ae565b91506111bd60c08d016110c5565b90509295989b509295989b9093969950565b6000815180845260005b818110156111f5576020818501810151868301820152016111d9565b506000602082860101526020601f19601f83011685010191505092915050565b602081526000610cbc60208301846111cf565b60006020828403121561123a57600080fd5b5035919050565b60006020828403121561125357600080fd5b81356001600160a01b0381168114610cbc57600080fd5b634e487b7160e01b600052602160045260246000fd5b60006001600160401b0382111561129957611299610ee5565b5060051b60200190565b60006112b66112b184611280565b610efb565b80848252602080830192508560051b8501368111156112d457600080fd5b855b818110156113235780356001600160401b038111156112f55760008081fd5b870136601f8201126113075760008081fd5b611315368235868401610f2b565b8652509382019382016112d6565b50919695505050505050565b600061133d6112b184611280565b80848252602080830192508560051b85013681111561135b57600080fd5b855b818110156113235780356001600160401b0381111561137c5760008081fd5b61138836828a01610f82565b86525093820193820161135d565b600181811c908216806113aa57607f821691505b6020821081036113ca57634e487b7160e01b600052602260045260246000fd5b50919050565b601f821115610a7157600081815260208120601f850160051c810160208610156113f75750805b601f850160051c820191505b8181101561141657828155600101611403565b505050505050565b81516001600160401b0381111561143757611437610ee5565b61144b816114458454611396565b846113d0565b602080601f83116001811461148057600084156114685750858301515b600019600386901b1c1916600185901b178555611416565b600085815260208120601f198616915b828110156114af57888601518255948401946001909101908401611490565b50858210156114cd5787850151600019600388901b60f8161c191681555b5050505050600190811b01905550565b634e487b7160e01b600052603260045260246000fd5b634e487b7160e01b600052601160045260246000fd5b60006001820161151b5761151b6114f3565b5060010190565b6001600160401b038616815260a06020820152600061154460a08301876111cf565b61ffff9590951660408301525063ffffffff92909216606083015260809091015292915050565b60006020828403121561157d57600080fd5b5051919050565b80820180821115610b7657610b766114f3565b81810381811115610b7657610b766114f3565b6000826115c757634e487b7160e01b600052601260045260246000fd5b500690565b8082028115828204841417610b7657610b766114f3565b600181815b8085111561161e578160001904821115611604576116046114f3565b8085161561161157918102915b93841c93908002906115e8565b509250929050565b60008261163557506001610b76565b8161164257506000610b76565b816001811461165857600281146116625761167e565b6001915050610b76565b60ff841115611673576116736114f3565b50506001821b610b76565b5060208310610133831016604e8410600b84101617156116a1575081810a610b76565b6116ab83836115e3565b80600019048211156116bf576116bf6114f3565b029392505050565b6000610cbc838361162656fea2646970667358221220a61d76b208e4384fd951d96598b7a947d0fb6f099c81408558bb5f603094870c64736f6c63430008130033",
    "sourcePath": "/Users/sophielamo/functions-deepdive-constellation2023/contracts/WeatherConsumer.sol",
    "compiler": {
        "name": "solc",
        "version": "0.8.19+commit.7dd6d404"
    },
    "functionHashes": {
        "acceptOwnership()": "79ba5097",
        "donId()": "8dbe7b9d",
        "handleOracleFulfillment(bytes32,bytes,bytes)": "0ca76175",
        "owner()": "8da5cb5b",
        "s_lastError()": "4b0795a8",
        "s_lastRequestId()": "b1e21749",
        "s_lastResponse()": "3944ea3a",
        "sendRequest(string,uint8,bytes,string[],bytes[],uint64,uint32)": "231c1619",
        "setDonId(bytes32)": "78ca5de7",
        "transferOwnership(address)": "f2fde38b"
    },
    "gasEstimates": {
        "creation": {
            "codeDepositCost": "1179400",
            "executionCost": "infinite",
            "totalCost": "infinite"
        },
        "external": {
            "acceptOwnership()": "52299",
            "donId()": "2339",
            "handleOracleFulfillment(bytes32,bytes,bytes)": "infinite",
            "owner()": "2323",
            "s_lastError()": "infinite",
            "s_lastRequestId()": "2361",
            "s_lastResponse()": "infinite",
            "sendRequest(string,uint8,bytes,string[],bytes[],uint64,uint32)": "infinite",
            "setDonId(bytes32)": "24577",
            "transferOwnership(address)": "30489"
        },
        "internal": {
            "fulfillRequest(bytes32,bytes memory,bytes memory)": "infinite"
        }
    }
}