{
    "contractName": "WeatherConsumer",
    "abi": [
        {
            "inputs": [
                {
                    "internalType": "address",
                    "name": "router",
                    "type": "address"
                },
                {
                    "internalType": "bytes32",
                    "name": "_donId",
                    "type": "bytes32"
                },
                {
                    "internalType": "uint64",
                    "name": "_subscriptionId",
                    "type": "uint64"
                },
                {
                    "internalType": "uint32",
                    "name": "_gasLimit",
                    "type": "uint32"
                }
            ],
            "stateMutability": "nonpayable",
            "type": "constructor"
        },
        {
            "inputs": [],
            "name": "EmptyArgs",
            "type": "error"
        },
        {
            "inputs": [],
            "name": "EmptySource",
            "type": "error"
        },
        {
            "inputs": [],
            "name": "NoInlineSecrets",
            "type": "error"
        },
        {
            "inputs": [],
            "name": "OnlyRouterCanFulfill",
            "type": "error"
        },
        {
            "anonymous": false,
            "inputs": [
                {
                    "indexed": true,
                    "internalType": "address",
                    "name": "from",
                    "type": "address"
                },
                {
                    "indexed": true,
                    "internalType": "address",
                    "name": "to",
                    "type": "address"
                }
            ],
            "name": "OwnershipTransferRequested",
            "type": "event"
        },
        {
            "anonymous": false,
            "inputs": [
                {
                    "indexed": true,
                    "internalType": "address",
                    "name": "from",
                    "type": "address"
                },
                {
                    "indexed": true,
                    "internalType": "address",
                    "name": "to",
                    "type": "address"
                }
            ],
            "name": "OwnershipTransferred",
            "type": "event"
        },
        {
            "anonymous": false,
            "inputs": [
                {
                    "indexed": false,
                    "internalType": "bytes",
                    "name": "error",
                    "type": "bytes"
                }
            ],
            "name": "RequestFailed",
            "type": "event"
        },
        {
            "anonymous": false,
            "inputs": [
                {
                    "indexed": true,
                    "internalType": "bytes32",
                    "name": "id",
                    "type": "bytes32"
                }
            ],
            "name": "RequestFulfilled",
            "type": "event"
        },
        {
            "anonymous": false,
            "inputs": [
                {
                    "indexed": true,
                    "internalType": "bytes32",
                    "name": "id",
                    "type": "bytes32"
                }
            ],
            "name": "RequestSent",
            "type": "event"
        },
        {
            "anonymous": false,
            "inputs": [
                {
                    "indexed": true,
                    "internalType": "bytes32",
                    "name": "requestId",
                    "type": "bytes32"
                },
                {
                    "indexed": false,
                    "internalType": "string",
                    "name": "temperature",
                    "type": "string"
                },
                {
                    "indexed": false,
                    "internalType": "uint64",
                    "name": "timestamp",
                    "type": "uint64"
                }
            ],
            "name": "WeatherInfoReceived",
            "type": "event"
        },
        {
            "anonymous": false,
            "inputs": [
                {
                    "indexed": true,
                    "internalType": "bytes32",
                    "name": "requestId",
                    "type": "bytes32"
                },
                {
                    "indexed": false,
                    "internalType": "string",
                    "name": "lat",
                    "type": "string"
                },
                {
                    "indexed": false,
                    "internalType": "string",
                    "name": "long",
                    "type": "string"
                }
            ],
            "name": "WeatherInfoRequested",
            "type": "event"
        },
        {
            "inputs": [],
            "name": "acceptOwnership",
            "outputs": [],
            "stateMutability": "nonpayable",
            "type": "function"
        },
        {
            "inputs": [],
            "name": "donId",
            "outputs": [
                {
                    "internalType": "bytes32",
                    "name": "",
                    "type": "bytes32"
                }
            ],
            "stateMutability": "view",
            "type": "function"
        },
        {
            "inputs": [
                {
                    "internalType": "bytes32",
                    "name": "requestId",
                    "type": "bytes32"
                },
                {
                    "internalType": "bytes",
                    "name": "response",
                    "type": "bytes"
                },
                {
                    "internalType": "bytes",
                    "name": "err",
                    "type": "bytes"
                }
            ],
            "name": "handleOracleFulfillment",
            "outputs": [],
            "stateMutability": "nonpayable",
            "type": "function"
        },
        {
            "inputs": [],
            "name": "owner",
            "outputs": [
                {
                    "internalType": "address",
                    "name": "",
                    "type": "address"
                }
            ],
            "stateMutability": "view",
            "type": "function"
        },
        {
            "inputs": [
                {
                    "internalType": "string",
                    "name": "lat",
                    "type": "string"
                },
                {
                    "internalType": "string",
                    "name": "long",
                    "type": "string"
                }
            ],
            "name": "requestWeatherInfo",
            "outputs": [],
            "stateMutability": "nonpayable",
            "type": "function"
        },
        {
            "inputs": [
                {
                    "internalType": "bytes32",
                    "name": "",
                    "type": "bytes32"
                }
            ],
            "name": "requests",
            "outputs": [
                {
                    "internalType": "string",
                    "name": "lat",
                    "type": "string"
                },
                {
                    "internalType": "string",
                    "name": "long",
                    "type": "string"
                },
                {
                    "internalType": "string",
                    "name": "temperature",
                    "type": "string"
                },
                {
                    "internalType": "uint64",
                    "name": "timestamp",
                    "type": "uint64"
                }
            ],
            "stateMutability": "view",
            "type": "function"
        },
        {
            "inputs": [
                {
                    "internalType": "bytes32",
                    "name": "newDonId",
                    "type": "bytes32"
                }
            ],
            "name": "setDonId",
            "outputs": [],
            "stateMutability": "nonpayable",
            "type": "function"
        },
        {
            "inputs": [
                {
                    "internalType": "address",
                    "name": "to",
                    "type": "address"
                }
            ],
            "name": "transferOwnership",
            "outputs": [],
            "stateMutability": "nonpayable",
            "type": "function"
        }
    ],
    "bytecode": "60a060405234801562000010575f80fd5b5060405162001c8e38038062001c8e8339810160408190526200003391620001ba565b6001600160a01b03841660805233805f81620000965760405162461bcd60e51b815260206004820152601860248201527f43616e6e6f7420736574206f776e657220746f207a65726f000000000000000060448201526064015b60405180910390fd5b5f80546001600160a01b0319166001600160a01b0384811691909117909155811615620000c857620000c88162000110565b5050506002929092556003805463ffffffff90931668010000000000000000026001600160601b03199093166001600160401b0390921691909117919091179055506200022e565b336001600160a01b038216036200016a5760405162461bcd60e51b815260206004820152601760248201527f43616e6e6f74207472616e7366657220746f2073656c6600000000000000000060448201526064016200008d565b600180546001600160a01b0319166001600160a01b038381169182179092555f8054604051929316917fed8889f560326eb138920d842192f0eb3dd22b4f139c87a2c57538e05bae12789190a350565b5f805f8060808587031215620001ce575f80fd5b84516001600160a01b0381168114620001e5575f80fd5b6020860151604087015191955093506001600160401b038116811462000209575f80fd5b606086015190925063ffffffff8116811462000223575f80fd5b939692955090935050565b608051611a406200024e5f395f81816101430152610c820152611a405ff3fe608060405234801561000f575f80fd5b5060043610610085575f3560e01c80638dbe7b9d116100585780638dbe7b9d146100d85780639d866985146100ef578063f0d919ba14610112578063f2fde38b14610125575f80fd5b80630ca761751461008957806378ca5de71461009e57806379ba5097146100b15780638da5cb5b146100b9575b5f80fd5b61009c610097366004611278565b610138565b005b61009c6100ac3660046112df565b6101bb565b61009c6101c8565b5f546040516001600160a01b0390911681526020015b60405180910390f35b6100e160025481565b6040519081526020016100cf565b6101026100fd3660046112df565b610276565b6040516100cf9493929190611339565b61009c6101203660046113d0565b610438565b61009c610133366004611436565b610661565b336001600160a01b037f000000000000000000000000000000000000000000000000000000000000000016146101815760405163c6829f8360e01b815260040160405180910390fd5b61018c838383610675565b60405183907f85e1543bf2f84fe80c6badbce3648c8539ad1df4d2b3d822938ca0538be727e6905f90a2505050565b6101c36106c7565b600255565b6001546001600160a01b031633146102205760405162461bcd60e51b815260206004820152601660248201527526bab9ba10313290383937b837b9b2b21037bbb732b960511b60448201526064015b60405180910390fd5b5f8054336001600160a01b0319808316821784556001805490911690556040516001600160a01b0390921692909183917f8be0079c531659141344cd1fd0a4f28419497f9722a3daafe3b4186f6b6457e091a350565b60046020525f90815260409020805481906102909061145c565b80601f01602080910402602001604051908101604052809291908181526020018280546102bc9061145c565b80156103075780601f106102de57610100808354040283529160200191610307565b820191905f5260205f20905b8154815290600101906020018083116102ea57829003601f168201915b50505050509080600101805461031c9061145c565b80601f01602080910402602001604051908101604052809291908181526020018280546103489061145c565b80156103935780601f1061036a57610100808354040283529160200191610393565b820191905f5260205f20905b81548152906001019060200180831161037657829003601f168201915b5050505050908060020180546103a89061145c565b80601f01602080910402602001604051908101604052809291908181526020018280546103d49061145c565b801561041f5780601f106103f65761010080835404028352916020019161041f565b820191905f5260205f20905b81548152906001019060200180831161040257829003601f168201915b505050600390930154919250506001600160401b031684565b604080516002808252606082019092525f91816020015b606081526020019060019003908161044f57905050905084848080601f0160208091040260200160405190810160405280939291908181526020018383808284375f9201829052508551869450909250151590506104af576104af611494565b602002602001018190525082828080601f0160208091040260200160405190810160405280939291908181526020018383808284375f9201919091525050835184925060019150811061050457610504611494565b60200260200101819052505f6105198261071b565b6040805160a06020601f8a0181900402820181019092526080810188815292935091829189908990819085018382808284375f92019190915250505090825250604080516020601f8801819004810282018101909252868152918101919087908790819084018382808284375f920182905250938552505060408051602081810183528482528086019190915293810183905285835260049093525020815181906105c490826114f5565b50602082015160018201906105d990826114f5565b50604082015160028201906105ee90826114f5565b50606091909101516003909101805467ffffffffffffffff19166001600160401b0390921691909117905560405181907f6e8f58e50fb9b0a098fda42a5cab096be04b61280d3d3b9b85a6117e9cf8269d906106519089908990899089906115d8565b60405180910390a2505050505050565b6106696106c7565b610672816107d1565b50565b8051156106b8577ffcadac11e2860a0aa63d4dbae1b5a99187a87215cf2aeb44de442ed2771c4195816040516106ab9190611609565b60405180910390a1505050565b6106c28383610879565b505050565b5f546001600160a01b031633146107195760405162461bcd60e51b815260206004820152601660248201527527b7363c9031b0b63630b1363290313c9037bbb732b960511b6044820152606401610217565b565b5f61075a6040805160e08101909152805f81526020015f81526020015f8152602001606081526020016060815260200160608152602001606081525090565b6107845f806040518061020001604052806101df815260200161182c6101df913984929190610904565b825115610795576107958184610981565b6107ca6107a1826109aa565b6003546002546001600160401b0382169168010000000000000000900463ffffffff1690610c7e565b9392505050565b336001600160a01b038216036108295760405162461bcd60e51b815260206004820152601760248201527f43616e6e6f74207472616e7366657220746f2073656c660000000000000000006044820152606401610217565b600180546001600160a01b0319166001600160a01b038381169182179092555f8054604051929316917fed8889f560326eb138920d842192f0eb3dd22b4f139c87a2c57538e05bae12789190a350565b5f8281526004602052604090208190429060020161089783826114f5565b505f8481526004602052604090819020600301805467ffffffffffffffff19166001600160401b0384161790555184907ff16181e04e2db30045e03242b61274aaae435cf83d71569752d85284f3425f92906108f6908590859061161b565b60405180910390a250505050565b80515f03610925576040516322ce3edd60e01b815260040160405180910390fd5b8383600281111561093857610938611645565b9081600281111561094b5761094b611645565b9052506040840182801561096157610961611645565b9081801561097157610971611645565b9052506060909301929092525050565b80515f036109a25760405163fe936cb760e01b815260040160405180910390fd5b60a090910152565b60605f6109b8610100610d4b565b90506109f16040518060400160405280600c81526020016b31b7b232a637b1b0ba34b7b760a11b81525082610d6b90919063ffffffff16565b8251610a0f906002811115610a0857610a08611645565b8290610d84565b6040805180820190915260088152676c616e677561676560c01b6020820152610a39908290610d6b565b6040830151610a50908015610a0857610a08611645565b604080518082019091526006815265736f7572636560d01b6020820152610a78908290610d6b565b6060830151610a88908290610d6b565b60a08301515115610b1b576040805180820190915260048152636172677360e01b6020820152610ab9908290610d6b565b610ac281610dc1565b5f5b8360a0015151811015610b1157610b018460a001518281518110610aea57610aea611494565b602002602001015183610d6b90919063ffffffff16565b610b0a8161166d565b9050610ac4565b50610b1b81610de5565b60808301515115610bde575f83602001516002811115610b3d57610b3d611645565b03610b5b5760405163a80d31f760e01b815260040160405180910390fd5b60408051808201909152600f81526e39b2b1b932ba39a637b1b0ba34b7b760891b6020820152610b8c908290610d6b565b610ba583602001516002811115610a0857610a08611645565b6040805180820190915260078152667365637265747360c81b6020820152610bce908290610d6b565b6080830151610bde908290610e03565b60c08301515115610c765760408051808201909152600981526862797465734172677360b81b6020820152610c14908290610d6b565b610c1d81610dc1565b5f5b8360c0015151811015610c6c57610c5c8460c001518281518110610c4557610c45611494565b602002602001015183610e0390919063ffffffff16565b610c658161166d565b9050610c1f565b50610c7681610de5565b515192915050565b5f807f00000000000000000000000000000000000000000000000000000000000000006001600160a01b031663461d27628688600188886040518663ffffffff1660e01b8152600401610cd5959493929190611685565b6020604051808303815f875af1158015610cf1573d5f803e3d5ffd5b505050506040513d601f19601f82011682018060405250810190610d1591906116cd565b60405190915081907f1131472297a800fee664d1d89cfa8f7676ff07189ecc53f80bbb5f4969099db8905f90a295945050505050565b610d536111a9565b8051610d5f9083610e10565b505f6020820152919050565b610d788260038351610e87565b81516106c29082610fa6565b8151610d919060c2610fc6565b50610dbd8282604051602001610da991815260200190565b604051602081830303815290604052610e03565b5050565b610dcc81600461102d565b600181602001818151610ddf91906116e4565b90525050565b610df081600761102d565b600181602001818151610ddf91906116f7565b610d788260028351610e87565b60408051808201909152606081525f6020820152610e2f60208361170a565b15610e5757610e3f60208361170a565b610e4a9060206116f7565b610e5490836116e4565b91505b60208084018390526040518085525f8152908184010181811015610e79575f80fd5b604052508290505b92915050565b6017816001600160401b031611610eb3578251610ead9060e0600585901b168317610fc6565b50505050565b60ff816001600160401b031611610ef3578251610edb906018611fe0600586901b1617610fc6565b508251610ead906001600160401b0383166001611044565b61ffff816001600160401b031611610f34578251610f1c906019611fe0600586901b1617610fc6565b508251610ead906001600160401b0383166002611044565b63ffffffff816001600160401b031611610f77578251610f5f90601a611fe0600586901b1617610fc6565b508251610ead906001600160401b0383166004611044565b8251610f8e90601b611fe0600586901b1617610fc6565b508251610ead906001600160401b0383166008611044565b60408051808201909152606081525f60208201526107ca838384516110c6565b60408051808201909152606081525f60208201528251515f610fe98260016116e4565b90508460200151821061100a5761100a85611005836002611729565b611192565b8451602083820101858153508051821115611023578181525b5093949350505050565b81516106c290601f611fe0600585901b1617610fc6565b60408051808201909152606081525f60208201528351515f61106682856116e4565b905085602001518111156110835761108386611005836002611729565b5f600161109286610100611820565b61109c91906116f7565b905086518281018783198251161781525080518311156110ba578281525b50959695505050505050565b60408051808201909152606081525f602082015282518211156110e7575f80fd5b8351515f6110f584836116e4565b905085602001518111156111125761111286611005836002611729565b85518051838201602001915f918085111561112b578482525b505050602086015b6020861061116b578051825261114a6020836116e4565b91506111576020826116e4565b90506111646020876116f7565b9550611133565b5181515f1960208890036101000a0190811690199190911617905250849150509392505050565b815161119e8383610e10565b50610ead8382610fa6565b60405180604001604052806111d06040518060400160405280606081526020015f81525090565b81526020015f81525090565b634e487b7160e01b5f52604160045260245ffd5b5f82601f8301126111ff575f80fd5b81356001600160401b0380821115611219576112196111dc565b604051601f8301601f19908116603f01168101908282118183101715611241576112416111dc565b81604052838152866020858801011115611259575f80fd5b836020870160208301375f602085830101528094505050505092915050565b5f805f6060848603121561128a575f80fd5b8335925060208401356001600160401b03808211156112a7575f80fd5b6112b3878388016111f0565b935060408601359150808211156112c8575f80fd5b506112d5868287016111f0565b9150509250925092565b5f602082840312156112ef575f80fd5b5035919050565b5f81518084525f5b8181101561131a576020818501810151868301820152016112fe565b505f602082860101526020601f19601f83011685010191505092915050565b608081525f61134b60808301876112f6565b828103602084015261135d81876112f6565b9050828103604084015261137181866112f6565b9150506001600160401b038316606083015295945050505050565b5f8083601f84011261139c575f80fd5b5081356001600160401b038111156113b2575f80fd5b6020830191508360208285010111156113c9575f80fd5b9250929050565b5f805f80604085870312156113e3575f80fd5b84356001600160401b03808211156113f9575f80fd5b6114058883890161138c565b9096509450602087013591508082111561141d575f80fd5b5061142a8782880161138c565b95989497509550505050565b5f60208284031215611446575f80fd5b81356001600160a01b03811681146107ca575f80fd5b600181811c9082168061147057607f821691505b60208210810361148e57634e487b7160e01b5f52602260045260245ffd5b50919050565b634e487b7160e01b5f52603260045260245ffd5b601f8211156106c2575f81815260208120601f850160051c810160208610156114ce5750805b601f850160051c820191505b818110156114ed578281556001016114da565b505050505050565b81516001600160401b0381111561150e5761150e6111dc565b6115228161151c845461145c565b846114a8565b602080601f831160018114611555575f841561153e5750858301515b5f19600386901b1c1916600185901b1785556114ed565b5f85815260208120601f198616915b8281101561158357888601518255948401946001909101908401611564565b50858210156115a057878501515f19600388901b60f8161c191681555b5050505050600190811b01905550565b81835281816020850137505f828201602090810191909152601f909101601f19169091010190565b604081525f6115eb6040830186886115b0565b82810360208401526115fe8185876115b0565b979650505050505050565b602081525f6107ca60208301846112f6565b604081525f61162d60408301856112f6565b90506001600160401b03831660208301529392505050565b634e487b7160e01b5f52602160045260245ffd5b634e487b7160e01b5f52601160045260245ffd5b5f6001820161167e5761167e611659565b5060010190565b6001600160401b038616815260a060208201525f6116a660a08301876112f6565b61ffff9590951660408301525063ffffffff92909216606083015260809091015292915050565b5f602082840312156116dd575f80fd5b5051919050565b80820180821115610e8157610e81611659565b81810381811115610e8157610e81611659565b5f8261172457634e487b7160e01b5f52601260045260245ffd5b500690565b8082028115828204841417610e8157610e81611659565b600181815b8085111561177a57815f190482111561176057611760611659565b8085161561176d57918102915b93841c9390800290611745565b509250929050565b5f8261179057506001610e81565b8161179c57505f610e81565b81600181146117b257600281146117bc576117d8565b6001915050610e81565b60ff8411156117cd576117cd611659565b50506001821b610e81565b5060208310610133831016604e8410600b84101617156117fb575081810a610e81565b6118058383611740565b805f190482111561181857611818611659565b029392505050565b5f6107ca838361178256fe636f6e7374206c6174203d20617267735b305d3b20636f6e7374206c6f6e67203d20617267735b315d3b20636f6e73742077656174686572526573706f6e7365203d2061776169742046756e6374696f6e732e6d616b654874747052657175657374287b75726c3a206068747470733a2f2f6170692e6f70656e2d6d6574656f2e636f6d2f76312f666f7265636173743f6c617469747564653d247b6c61747d266c6f6e6769747564653d247b6c6f6e677d2663757272656e743d74656d70657261747572655f326d607d293b2069662877656174686572526573706f6e73652e6572726f7229207b207468726f77204572726f7228275765617468657220415049204572726f7227293b207d20636f6e73742063757272656e7454656d7065726174757265203d2077656174686572526573706f6e73652e646174612e63757272656e745b2774656d70657261747572655f326d275d3b206966282163757272656e7454656d706572617475726529207b207468726f77204572726f722827576561746865722041504920646964206e6f742072657475726e2074656d706572617475726527293b207d2072657475726e2046756e6374696f6e732e656e636f646555696e743235362863757272656e7454656d7065726174757265293ba264697066735822122097904fb2920a810d77d45e798c11d7452594c40d799ef00223b63412dd7782a864736f6c63430008140033",
    "sourcePath": "/Users/sophielamo/defi-frontend/backend/contracts/weather/requests/WeatherConsumer.sol",
    "compiler": {
        "name": "solc",
        "version": "0.8.20+commit.a1b79de6"
    },
    "functionHashes": {
        "acceptOwnership()": "79ba5097",
        "donId()": "8dbe7b9d",
        "handleOracleFulfillment(bytes32,bytes,bytes)": "0ca76175",
        "owner()": "8da5cb5b",
        "requestWeatherInfo(string,string)": "f0d919ba",
        "requests(bytes32)": "9d866985",
        "setDonId(bytes32)": "78ca5de7",
        "transferOwnership(address)": "f2fde38b"
    },
    "gasEstimates": {
        "creation": {
            "codeDepositCost": "1344000",
            "executionCost": "infinite",
            "totalCost": "infinite"
        },
        "external": {
            "acceptOwnership()": "52342",
            "donId()": "2294",
            "handleOracleFulfillment(bytes32,bytes,bytes)": "infinite",
            "owner()": "2355",
            "requestWeatherInfo(string,string)": "infinite",
            "requests(bytes32)": "infinite",
            "setDonId(bytes32)": "24508",
            "transferOwnership(address)": "30463"
        },
        "internal": {
            "_processResponse(bytes32,bytes memory)": "infinite",
            "_sendRequest(string memory[] memory)": "infinite",
            "fulfillRequest(bytes32,bytes memory,bytes memory)": "infinite"
        }
    }
}