{
    "contractName": "WeatherConsumer",
    "abi": [
        {
            "inputs": [
                {
                    "internalType": "address",
                    "name": "router",
                    "type": "address"
                },
                {
                    "internalType": "bytes32",
                    "name": "_donId",
                    "type": "bytes32"
                }
            ],
            "stateMutability": "nonpayable",
            "type": "constructor"
        },
        {
            "inputs": [],
            "name": "EmptyArgs",
            "type": "error"
        },
        {
            "inputs": [],
            "name": "EmptySource",
            "type": "error"
        },
        {
            "inputs": [],
            "name": "NoInlineSecrets",
            "type": "error"
        },
        {
            "inputs": [],
            "name": "OnlyRouterCanFulfill",
            "type": "error"
        },
        {
            "anonymous": false,
            "inputs": [
                {
                    "indexed": true,
                    "internalType": "address",
                    "name": "from",
                    "type": "address"
                },
                {
                    "indexed": true,
                    "internalType": "address",
                    "name": "to",
                    "type": "address"
                }
            ],
            "name": "OwnershipTransferRequested",
            "type": "event"
        },
        {
            "anonymous": false,
            "inputs": [
                {
                    "indexed": true,
                    "internalType": "address",
                    "name": "from",
                    "type": "address"
                },
                {
                    "indexed": true,
                    "internalType": "address",
                    "name": "to",
                    "type": "address"
                }
            ],
            "name": "OwnershipTransferred",
            "type": "event"
        },
        {
            "anonymous": false,
            "inputs": [
                {
                    "indexed": true,
                    "internalType": "bytes32",
                    "name": "id",
                    "type": "bytes32"
                }
            ],
            "name": "RequestFulfilled",
            "type": "event"
        },
        {
            "anonymous": false,
            "inputs": [
                {
                    "indexed": true,
                    "internalType": "bytes32",
                    "name": "id",
                    "type": "bytes32"
                }
            ],
            "name": "RequestSent",
            "type": "event"
        },
        {
            "inputs": [],
            "name": "acceptOwnership",
            "outputs": [],
            "stateMutability": "nonpayable",
            "type": "function"
        },
        {
            "inputs": [],
            "name": "donId",
            "outputs": [
                {
                    "internalType": "bytes32",
                    "name": "",
                    "type": "bytes32"
                }
            ],
            "stateMutability": "view",
            "type": "function"
        },
        {
            "inputs": [
                {
                    "internalType": "bytes32",
                    "name": "requestId",
                    "type": "bytes32"
                },
                {
                    "internalType": "bytes",
                    "name": "response",
                    "type": "bytes"
                },
                {
                    "internalType": "bytes",
                    "name": "err",
                    "type": "bytes"
                }
            ],
            "name": "handleOracleFulfillment",
            "outputs": [],
            "stateMutability": "nonpayable",
            "type": "function"
        },
        {
            "inputs": [],
            "name": "owner",
            "outputs": [
                {
                    "internalType": "address",
                    "name": "",
                    "type": "address"
                }
            ],
            "stateMutability": "view",
            "type": "function"
        },
        {
            "inputs": [],
            "name": "s_lastError",
            "outputs": [
                {
                    "internalType": "bytes",
                    "name": "",
                    "type": "bytes"
                }
            ],
            "stateMutability": "view",
            "type": "function"
        },
        {
            "inputs": [],
            "name": "s_lastRequestId",
            "outputs": [
                {
                    "internalType": "bytes32",
                    "name": "",
                    "type": "bytes32"
                }
            ],
            "stateMutability": "view",
            "type": "function"
        },
        {
            "inputs": [],
            "name": "s_lastResponse",
            "outputs": [
                {
                    "internalType": "bytes",
                    "name": "",
                    "type": "bytes"
                }
            ],
            "stateMutability": "view",
            "type": "function"
        },
        {
            "inputs": [
                {
                    "internalType": "string",
                    "name": "source",
                    "type": "string"
                },
                {
                    "internalType": "enum FunctionsRequest.Location",
                    "name": "secretsLocation",
                    "type": "uint8"
                },
                {
                    "internalType": "bytes",
                    "name": "encryptedSecretsReference",
                    "type": "bytes"
                },
                {
                    "internalType": "string[]",
                    "name": "args",
                    "type": "string[]"
                },
                {
                    "internalType": "bytes[]",
                    "name": "bytesArgs",
                    "type": "bytes[]"
                },
                {
                    "internalType": "uint64",
                    "name": "subscriptionId",
                    "type": "uint64"
                },
                {
                    "internalType": "uint32",
                    "name": "callbackGasLimit",
                    "type": "uint32"
                }
            ],
            "name": "sendRequest",
            "outputs": [],
            "stateMutability": "nonpayable",
            "type": "function"
        },
        {
            "inputs": [
                {
                    "internalType": "bytes32",
                    "name": "newDonId",
                    "type": "bytes32"
                }
            ],
            "name": "setDonId",
            "outputs": [],
            "stateMutability": "nonpayable",
            "type": "function"
        },
        {
            "inputs": [
                {
                    "internalType": "address",
                    "name": "to",
                    "type": "address"
                }
            ],
            "name": "transferOwnership",
            "outputs": [],
            "stateMutability": "nonpayable",
            "type": "function"
        }
    ],
    "bytecode": "60a060405234801562000010575f80fd5b50604051620018673803806200186783398101604081905262000033916200017f565b6001600160a01b03821660805233805f81620000965760405162461bcd60e51b815260206004820152601860248201527f43616e6e6f7420736574206f776e657220746f207a65726f000000000000000060448201526064015b60405180910390fd5b5f80546001600160a01b0319166001600160a01b0384811691909117909155811615620000c857620000c881620000d5565b50505060025550620001b8565b336001600160a01b038216036200012f5760405162461bcd60e51b815260206004820152601760248201527f43616e6e6f74207472616e7366657220746f2073656c6600000000000000000060448201526064016200008d565b600180546001600160a01b0319166001600160a01b038381169182179092555f8054604051929316917fed8889f560326eb138920d842192f0eb3dd22b4f139c87a2c57538e05bae12789190a350565b5f806040838503121562000191575f80fd5b82516001600160a01b0381168114620001a8575f80fd5b6020939093015192949293505050565b60805161168f620001d85f395f818161016001526108a9015261168f5ff3fe608060405234801561000f575f80fd5b506004361061009b575f3560e01c806379ba50971161006357806379ba5097146101005780638da5cb5b146101085780638dbe7b9d14610122578063b1e2174914610139578063f2fde38b14610142575f80fd5b80630ca761751461009f578063231c1619146100b45780633944ea3a146100c75780634b0795a8146100e557806378ca5de7146100ed575b5f80fd5b6100b26100ad366004610f6d565b610155565b005b6100b26100c2366004611094565b6101d8565b6100cf610325565b6040516100dc91906111c2565b60405180910390f35b6100cf6103b1565b6100b26100fb3660046111d4565b6103be565b6100b26103cb565b5f546040516001600160a01b0390911681526020016100dc565b61012b60025481565b6040519081526020016100dc565b61012b60035481565b6100b26101503660046111eb565b610479565b336001600160a01b037f0000000000000000000000000000000000000000000000000000000000000000161461019e5760405163c6829f8360e01b815260040160405180910390fd5b6101a983838361048d565b60405183907f85e1543bf2f84fe80c6badbce3648c8539ad1df4d2b3d822938ca0538be727e6905f90a2505050565b6101e06104ae565b61021e6040805160e08101909152805f81526020015f81526020015f8152602001606081526020016060815260200160608152602001606081525090565b6102635f808e8e8080601f0160208091040260200160405190810160405280939291908181526020018383808284375f92019190915250879594939250506105029050565b602081018a600281111561027957610279611211565b9081600281111561028c5761028c611211565b8152505088888080601f0160208091040260200160405190810160405280939291908181526020018383808284375f92019190915250505050608082015285156102e4576102e46102dd8789611247565b829061057f565b83156102fe576102fe6102f785876112cf565b82906105a8565b61031461030a826105d1565b84846002546108a5565b600355505050505050505050505050565b6004805461033290611333565b80601f016020809104026020016040519081016040528092919081815260200182805461035e90611333565b80156103a95780601f10610380576101008083540402835291602001916103a9565b820191905f5260205f20905b81548152906001019060200180831161038c57829003601f168201915b505050505081565b6005805461033290611333565b6103c66104ae565b600255565b6001546001600160a01b031633146104235760405162461bcd60e51b815260206004820152601660248201527526bab9ba10313290383937b837b9b2b21037bbb732b960511b60448201526064015b60405180910390fd5b5f8054336001600160a01b0319808316821784556001805490911690556040516001600160a01b0390921692909183917f8be0079c531659141344cd1fd0a4f28419497f9722a3daafe3b4186f6b6457e091a350565b6104816104ae565b61048a81610972565b50565b600461049983826113b8565b5060056104a682826113b8565b505050600355565b5f546001600160a01b031633146105005760405162461bcd60e51b815260206004820152601660248201527527b7363c9031b0b63630b1363290313c9037bbb732b960511b604482015260640161041a565b565b80515f03610523576040516322ce3edd60e01b815260040160405180910390fd5b8383600281111561053657610536611211565b9081600281111561054957610549611211565b9052506040840182801561055f5761055f611211565b9081801561056f5761056f611211565b9052506060909301929092525050565b80515f036105a05760405163fe936cb760e01b815260040160405180910390fd5b60a090910152565b80515f036105c95760405163fe936cb760e01b815260040160405180910390fd5b60c090910152565b60605f6105df610100610a1a565b90506106186040518060400160405280600c81526020016b31b7b232a637b1b0ba34b7b760a11b81525082610a3a90919063ffffffff16565b825161063690600281111561062f5761062f611211565b8290610a58565b6040805180820190915260088152676c616e677561676560c01b6020820152610660908290610a3a565b604083015161067790801561062f5761062f611211565b604080518082019091526006815265736f7572636560d01b602082015261069f908290610a3a565b60608301516106af908290610a3a565b60a08301515115610742576040805180820190915260048152636172677360e01b60208201526106e0908290610a3a565b6106e981610a95565b5f5b8360a0015151811015610738576107288460a00151828151811061071157610711611473565b602002602001015183610a3a90919063ffffffff16565b6107318161149b565b90506106eb565b5061074281610ab9565b60808301515115610805575f8360200151600281111561076457610764611211565b036107825760405163a80d31f760e01b815260040160405180910390fd5b60408051808201909152600f81526e39b2b1b932ba39a637b1b0ba34b7b760891b60208201526107b3908290610a3a565b6107cc8360200151600281111561062f5761062f611211565b6040805180820190915260078152667365637265747360c81b60208201526107f5908290610a3a565b6080830151610805908290610ad7565b60c0830151511561089d5760408051808201909152600981526862797465734172677360b81b602082015261083b908290610a3a565b61084481610a95565b5f5b8360c0015151811015610893576108838460c00151828151811061086c5761086c611473565b602002602001015183610ad790919063ffffffff16565b61088c8161149b565b9050610846565b5061089d81610ab9565b515192915050565b5f807f00000000000000000000000000000000000000000000000000000000000000006001600160a01b031663461d27628688600188886040518663ffffffff1660e01b81526004016108fc9594939291906114b3565b6020604051808303815f875af1158015610918573d5f803e3d5ffd5b505050506040513d601f19601f8201168201806040525081019061093c91906114fb565b60405190915081907f1131472297a800fee664d1d89cfa8f7676ff07189ecc53f80bbb5f4969099db8905f90a295945050505050565b336001600160a01b038216036109ca5760405162461bcd60e51b815260206004820152601760248201527f43616e6e6f74207472616e7366657220746f2073656c66000000000000000000604482015260640161041a565b600180546001600160a01b0319166001600160a01b038381169182179092555f8054604051929316917fed8889f560326eb138920d842192f0eb3dd22b4f139c87a2c57538e05bae12789190a350565b610a22610e84565b8051610a2e9083610ae4565b505f6020820152919050565b610a478260038351610b5b565b8151610a539082610c7a565b505050565b8151610a659060c2610ca1565b50610a918282604051602001610a7d91815260200190565b604051602081830303815290604052610ad7565b5050565b610aa0816004610d08565b600181602001818151610ab39190611512565b90525050565b610ac4816007610d08565b600181602001818151610ab39190611525565b610a478260028351610b5b565b60408051808201909152606081525f6020820152610b03602083611538565b15610b2b57610b13602083611538565b610b1e906020611525565b610b289083611512565b91505b60208084018390526040518085525f8152908184010181811015610b4d575f80fd5b604052508290505b92915050565b6017816001600160401b031611610b87578251610b819060e0600585901b168317610ca1565b50505050565b60ff816001600160401b031611610bc7578251610baf906018611fe0600586901b1617610ca1565b508251610b81906001600160401b0383166001610d1f565b61ffff816001600160401b031611610c08578251610bf0906019611fe0600586901b1617610ca1565b508251610b81906001600160401b0383166002610d1f565b63ffffffff816001600160401b031611610c4b578251610c3390601a611fe0600586901b1617610ca1565b508251610b81906001600160401b0383166004610d1f565b8251610c6290601b611fe0600586901b1617610ca1565b508251610b81906001600160401b0383166008610d1f565b60408051808201909152606081525f6020820152610c9a83838451610da1565b9392505050565b60408051808201909152606081525f60208201528251515f610cc4826001611512565b905084602001518210610ce557610ce585610ce0836002611557565b610e6d565b8451602083820101858153508051821115610cfe578181525b5093949350505050565b8151610a5390601f611fe0600585901b1617610ca1565b60408051808201909152606081525f60208201528351515f610d418285611512565b90508560200151811115610d5e57610d5e86610ce0836002611557565b5f6001610d6d8661010061164e565b610d779190611525565b90508651828101878319825116178152508051831115610d95578281525b50959695505050505050565b60408051808201909152606081525f60208201528251821115610dc2575f80fd5b8351515f610dd08483611512565b90508560200151811115610ded57610ded86610ce0836002611557565b85518051838201602001915f9180851115610e06578482525b505050602086015b60208610610e465780518252610e25602083611512565b9150610e32602082611512565b9050610e3f602087611525565b9550610e0e565b5181515f1960208890036101000a0190811690199190911617905250849150509392505050565b8151610e798383610ae4565b50610b818382610c7a565b6040518060400160405280610eab6040518060400160405280606081526020015f81525090565b81526020015f81525090565b634e487b7160e01b5f52604160045260245ffd5b604051601f8201601f191681016001600160401b0381118282101715610ef357610ef3610eb7565b604052919050565b5f6001600160401b03831115610f1357610f13610eb7565b610f26601f8401601f1916602001610ecb565b9050828152838383011115610f39575f80fd5b828260208301375f602084830101529392505050565b5f82601f830112610f5e575f80fd5b610c9a83833560208501610efb565b5f805f60608486031215610f7f575f80fd5b8335925060208401356001600160401b0380821115610f9c575f80fd5b610fa887838801610f4f565b93506040860135915080821115610fbd575f80fd5b50610fca86828701610f4f565b9150509250925092565b5f8083601f840112610fe4575f80fd5b5081356001600160401b03811115610ffa575f80fd5b602083019150836020828501011115611011575f80fd5b9250929050565b803560038110611026575f80fd5b919050565b5f8083601f84011261103b575f80fd5b5081356001600160401b03811115611051575f80fd5b6020830191508360208260051b8501011115611011575f80fd5b80356001600160401b0381168114611026575f80fd5b803563ffffffff81168114611026575f80fd5b5f805f805f805f805f805f60e08c8e0312156110ae575f80fd5b6001600160401b03808d3511156110c3575f80fd5b6110d08e8e358f01610fd4565b909c509a506110e160208e01611018565b99508060408e013511156110f3575f80fd5b6111038e60408f01358f01610fd4565b909950975060608d0135811015611118575f80fd5b6111288e60608f01358f0161102b565b909750955060808d013581101561113d575f80fd5b5061114e8d60808e01358e0161102b565b909450925061115f60a08d0161106b565b915061116d60c08d01611081565b90509295989b509295989b9093969950565b5f81518084525f5b818110156111a357602081850181015186830182015201611187565b505f602082860101526020601f19601f83011685010191505092915050565b602081525f610c9a602083018461117f565b5f602082840312156111e4575f80fd5b5035919050565b5f602082840312156111fb575f80fd5b81356001600160a01b0381168114610c9a575f80fd5b634e487b7160e01b5f52602160045260245ffd5b5f6001600160401b0382111561123d5761123d610eb7565b5060051b60200190565b5f61125961125484611225565b610ecb565b80848252602080830192508560051b850136811115611276575f80fd5b855b818110156112c35780356001600160401b03811115611296575f8081fd5b870136601f8201126112a7575f8081fd5b6112b5368235868401610efb565b865250938201938201611278565b50919695505050505050565b5f6112dc61125484611225565b80848252602080830192508560051b8501368111156112f9575f80fd5b855b818110156112c35780356001600160401b03811115611319575f8081fd5b61132536828a01610f4f565b8652509382019382016112fb565b600181811c9082168061134757607f821691505b60208210810361136557634e487b7160e01b5f52602260045260245ffd5b50919050565b601f821115610a53575f81815260208120601f850160051c810160208610156113915750805b601f850160051c820191505b818110156113b05782815560010161139d565b505050505050565b81516001600160401b038111156113d1576113d1610eb7565b6113e5816113df8454611333565b8461136b565b602080601f831160018114611418575f84156114015750858301515b5f19600386901b1c1916600185901b1785556113b0565b5f85815260208120601f198616915b8281101561144657888601518255948401946001909101908401611427565b508582101561146357878501515f19600388901b60f8161c191681555b5050505050600190811b01905550565b634e487b7160e01b5f52603260045260245ffd5b634e487b7160e01b5f52601160045260245ffd5b5f600182016114ac576114ac611487565b5060010190565b6001600160401b038616815260a060208201525f6114d460a083018761117f565b61ffff9590951660408301525063ffffffff92909216606083015260809091015292915050565b5f6020828403121561150b575f80fd5b5051919050565b80820180821115610b5557610b55611487565b81810381811115610b5557610b55611487565b5f8261155257634e487b7160e01b5f52601260045260245ffd5b500690565b8082028115828204841417610b5557610b55611487565b600181815b808511156115a857815f190482111561158e5761158e611487565b8085161561159b57918102915b93841c9390800290611573565b509250929050565b5f826115be57506001610b55565b816115ca57505f610b55565b81600181146115e057600281146115ea57611606565b6001915050610b55565b60ff8411156115fb576115fb611487565b50506001821b610b55565b5060208310610133831016604e8410600b8410161715611629575081810a610b55565b611633838361156e565b805f190482111561164657611646611487565b029392505050565b5f610c9a83836115b056fea264697066735822122030512f1bed0e596f5674ef56f7a9fcdc945f615197a9d80a92ba6fa61812e79164736f6c63430008140033",
    "sourcePath": "/Users/sophielamo/solsticeLend/backend/contracts/weather/secrets/1WeatherConsumer.sol",
    "compiler": {
        "name": "solc",
        "version": "0.8.20+commit.a1b79de6"
    },
    "functionHashes": {
        "acceptOwnership()": "79ba5097",
        "donId()": "8dbe7b9d",
        "handleOracleFulfillment(bytes32,bytes,bytes)": "0ca76175",
        "owner()": "8da5cb5b",
        "s_lastError()": "4b0795a8",
        "s_lastRequestId()": "b1e21749",
        "s_lastResponse()": "3944ea3a",
        "sendRequest(string,uint8,bytes,string[],bytes[],uint64,uint32)": "231c1619",
        "setDonId(bytes32)": "78ca5de7",
        "transferOwnership(address)": "f2fde38b"
    },
    "gasEstimates": {
        "creation": {
            "codeDepositCost": "1155000",
            "executionCost": "infinite",
            "totalCost": "infinite"
        },
        "external": {
            "acceptOwnership()": "52297",
            "donId()": "2338",
            "handleOracleFulfillment(bytes32,bytes,bytes)": "infinite",
            "owner()": "2321",
            "s_lastError()": "infinite",
            "s_lastRequestId()": "2360",
            "s_lastResponse()": "infinite",
            "sendRequest(string,uint8,bytes,string[],bytes[],uint64,uint32)": "infinite",
            "setDonId(bytes32)": "24574",
            "transferOwnership(address)": "30485"
        },
        "internal": {
            "fulfillRequest(bytes32,bytes memory,bytes memory)": "infinite"
        }
    }
}